{"contracts/TolMatrixX4.sol":{"TolMatrixX4":{"abi":[{"constant":true,"inputs":[{"name":"userAddress","type":"address"},{"name":"level","type":"uint8"}],"name":"usersactiveX4Levels","outputs":[{"name":"","type":"bool"}],"payable":false,"stateMutability":"view","type":"function"},{"constant":true,"inputs":[],"name":"LAST_LEVEL","outputs":[{"name":"","type":"uint8"}],"payable":false,"stateMutability":"view","type":"function"},{"constant":true,"inputs":[{"name":"","type":"uint256"}],"name":"idToAddress","outputs":[{"name":"","type":"address"}],"payable":false,"stateMutability":"view","type":"function"},{"constant":true,"inputs":[],"name":"lastUserId","outputs":[{"name":"","type":"uint256"}],"payable":false,"stateMutability":"view","type":"function"},{"constant":true,"inputs":[{"name":"userAddress","type":"address"},{"name":"level","type":"uint8"}],"name":"findfreeX4Referrer","outputs":[{"name":"","type":"address"}],"payable":false,"stateMutability":"view","type":"function"},{"constant":true,"inputs":[{"name":"","type":"uint256"}],"name":"userIds","outputs":[{"name":"","type":"address"}],"payable":false,"stateMutability":"view","type":"function"},{"constant":true,"inputs":[{"name":"user","type":"address"}],"name":"isUserExists","outputs":[{"name":"","type":"bool"}],"payable":false,"stateMutability":"view","type":"function"},{"constant":true,"inputs":[],"name":"currentStartingLevel","outputs":[{"name":"","type":"uint8"}],"payable":false,"stateMutability":"view","type":"function"},{"constant":false,"inputs":[{"name":"referrerAddress","type":"address"}],"name":"registrationExt","outputs":[],"payable":true,"stateMutability":"payable","type":"function"},{"constant":false,"inputs":[],"name":"withdrawLostTRXFromBalance","outputs":[],"payable":false,"stateMutability":"nonpayable","type":"function"},{"constant":true,"inputs":[],"name":"owner","outputs":[{"name":"","type":"address"}],"payable":false,"stateMutability":"view","type":"function"},{"constant":true,"inputs":[{"name":"userAddress","type":"address"},{"name":"level","type":"uint8"}],"name":"usersx4Matrix","outputs":[{"name":"","type":"address"},{"name":"","type":"address[]"},{"name":"","type":"address[]"},{"name":"","type":"bool"},{"name":"","type":"address"}],"payable":false,"stateMutability":"view","type":"function"},{"constant":true,"inputs":[{"name":"","type":"address"}],"name":"users","outputs":[{"name":"id","type":"uint256"},{"name":"referrer","type":"address"},{"name":"partnersCount","type":"uint256"}],"payable":false,"stateMutability":"view","type":"function"},{"constant":false,"inputs":[{"name":"xGoldAddress","type":"address"}],"name":"setXGold","outputs":[],"payable":false,"stateMutability":"nonpayable","type":"function"},{"constant":false,"inputs":[{"name":"matrix","type":"uint8"},{"name":"level","type":"uint8"}],"name":"buyNewLevel","outputs":[],"payable":true,"stateMutability":"payable","type":"function"},{"constant":true,"inputs":[{"name":"","type":"uint8"}],"name":"levelPrice","outputs":[{"name":"","type":"uint256"}],"payable":false,"stateMutability":"view","type":"function"},{"constant":true,"inputs":[],"name":"xGOLD","outputs":[{"name":"","type":"address"}],"payable":false,"stateMutability":"view","type":"function"},{"inputs":[{"name":"ownerAddress","type":"address"}],"payable":false,"stateMutability":"nonpayable","type":"constructor"},{"payable":true,"stateMutability":"payable","type":"fallback"},{"anonymous":false,"inputs":[{"indexed":true,"name":"user","type":"address"},{"indexed":true,"name":"referrer","type":"address"},{"indexed":true,"name":"userId","type":"uint256"},{"indexed":false,"name":"referrerId","type":"uint256"}],"name":"Registration","type":"event"},{"anonymous":false,"inputs":[{"indexed":true,"name":"user","type":"address"},{"indexed":true,"name":"currentReferrer","type":"address"},{"indexed":true,"name":"caller","type":"address"},{"indexed":false,"name":"matrix","type":"uint8"},{"indexed":false,"name":"level","type":"uint8"}],"name":"Reinvest","type":"event"},{"anonymous":false,"inputs":[{"indexed":true,"name":"user","type":"address"},{"indexed":true,"name":"referrer","type":"address"},{"indexed":false,"name":"matrix","type":"uint8"},{"indexed":false,"name":"level","type":"uint8"}],"name":"Upgrade","type":"event"},{"anonymous":false,"inputs":[{"indexed":true,"name":"user","type":"address"},{"indexed":true,"name":"referrer","type":"address"},{"indexed":false,"name":"matrix","type":"uint8"},{"indexed":false,"name":"level","type":"uint8"},{"indexed":false,"name":"place","type":"uint8"}],"name":"NewUserPlace","type":"event"},{"anonymous":false,"inputs":[{"indexed":true,"name":"receiver","type":"address"},{"indexed":true,"name":"from","type":"address"},{"indexed":false,"name":"matrix","type":"uint8"},{"indexed":false,"name":"level","type":"uint8"}],"name":"MissedEthReceive","type":"event"},{"anonymous":false,"inputs":[{"indexed":true,"name":"from","type":"address"},{"indexed":true,"name":"receiver","type":"address"},{"indexed":false,"name":"matrix","type":"uint8"},{"indexed":false,"name":"level","type":"uint8"}],"name":"SentExtraEthDividends","type":"event"}],"evm":{"bytecode":{"linkReferences":{},"object":"60806040526000805460ff191660019081179091556004553480156200002457600080fd5b5060405160208062002c18833981018060405260208110156200004657600080fd5b50516006602052655af3107a40007f3e5fec24aa4dc4e5aee2e025e51e1392c72a2500577559fae9665c6d52bd6a315566071afd498d00007f8819ef417987f8ae7a81f42cdfb18815282fe989326fbff903d13cf0e03ace2955668e1bc9bf0400007f75f96ab15d697e93042dc45b5c896c4b27e89bb6eaf39475c5c371cb2513f7d255670b1a2bc2ec5000007fc5069e24aaadb2addc3e52e868fcf3f4f8acf5a87e24300992fd4540c2a87eed5567de0b6b3a764000007fbfd358e93f18da3ed276c3afdbdba00b8f0b6008a03476a6a86bd6320ee6938b556801bc16d674ec8000007f697b2bd7bb2984c4e0dc14c79c987d37818484a62958b9c45a0e8b962f20650f556803782dace9d90000007f4ced6d0d36392b04cc5d8761b1327b3bbba6e1089c77f60a9a9ca18e05e4f00e556806f05b59d3b20000007fb8d683c9d414f481826f3e7fe14b3ac6ae8c73450778287390c4bb8cb9f2e80b55680de0b6b3a7640000007fca4d0c6c94a9477136dd41a99cc19ecbe441c8f6609efe7c6fa65be007a4732355681bc16d674ec80000007f4da38fc8e544afc56a4c2a17752b8ddb67d8e23ac4583c9029d2e2d1dbe6c98855683782dace9d900000007f85291c2e7881182c13e19eca9b58927ebfdc2c5d04882018eeb33d8241d3571155686f05b59d3b200000007f0b94fa1b86997cc1f1148bfbe25b674e8cefc7cc6f976aa8d7c7966bd4cca3475568c249fdd327780000007f248457bacb20e239ae314d8db91c0f270e453c28ee138c84f97aea6cfcf9a49955690154017c3185120000007faca6cdb4b5fe0ec50731a73f714dd191dc1911bfeb3f9eeb9e94ed0f6065ef8d55600f600052690253029956a8df8000007ff130046d53bc87538ab17e4752ba5f5082985eecc06ccb932c5a55e8242dd5025560058054600160a060020a031916600160a060020a038316179055620003046200042b565b5060408051606081018252600180825260006020808401828152848601838152600160a060020a03888116808652868552978520875181559251838701805491909216600160a060020a03199182161790915590516002928301559284905290527fe90b7bceb6e7df5418fb78d8ee546e97c83a08bbccc01a0644d599ccd2a7c2e08054909116909317909255905b600f60ff821611620003da57600160a060020a038316600090815260016020818152604080842060ff86168552600301909152909120805460ff1916821790550162000393565b5050600160005260036020527fa15bc60c955c405d20d9149c709e2460f1c2d9a497496a7f46004d1772c3054c8054600160a060020a031916600160a060020a039290921691909117905562000456565b606060405190810160405280600081526020016000600160a060020a03168152602001600081525090565b6127b280620004666000396000f3fe6080604052600436106100f05763ffffffff7c01000000000000000000000000000000000000000000000000000000006000350416632787c848811461015e57806329c70400146101ae5780632a2d0c47146101d9578063348d44871461021f5780633def2f0e146102465780634635fd6814610282578063509222cd146102ac57806379621fcc146102df578063797eee24146102f4578063899cdb901461031a5780638da5cb5b1461032f578063a4c85d9014610344578063a87430ba1461043d578063b2d4259c14610496578063be389d57146104c9578063ecabdf79146104f1578063fe29a15b1461051e575b3615156101135760055461010e903390600160a060020a0316610533565b61015c565b61015c336101576000368080601f01602080910402602001604051908101604052809392919081815260200183838082843760009201919091525061095092505050565b610533565b005b34801561016a57600080fd5b5061019a6004803603604081101561018157600080fd5b508035600160a060020a0316906020013560ff16610957565b604080519115158252519081900360200190f35b3480156101ba57600080fd5b506101c361098d565b6040805160ff9092168252519081900360200190f35b3480156101e557600080fd5b50610203600480360360208110156101fc57600080fd5b5035610992565b60408051600160a060020a039092168252519081900360200190f35b34801561022b57600080fd5b506102346109ad565b60408051918252519081900360200190f35b34801561025257600080fd5b506102036004803603604081101561026957600080fd5b508035600160a060020a0316906020013560ff166109b3565b34801561028e57600080fd5b50610203600480360360208110156102a557600080fd5b5035610a42565b3480156102b857600080fd5b5061019a600480360360208110156102cf57600080fd5b5035600160a060020a0316610a5d565b3480156102eb57600080fd5b506101c3610a7a565b61015c6004803603602081101561030a57600080fd5b5035600160a060020a0316610a83565b34801561032657600080fd5b5061015c610a90565b34801561033b57600080fd5b50610203610b3c565b34801561035057600080fd5b506103806004803603604081101561036757600080fd5b508035600160a060020a0316906020013560ff16610b4b565b60408051600160a060020a03808816825284151560608301528316608082015260a060208083018281528851928401929092528751929391929184019160c0850191898101910280838360005b838110156103e55781810151838201526020016103cd565b50505050905001838103825286818151815260200191508051906020019060200280838360005b8381101561042457818101518382015260200161040c565b5050505090500197505050505050505060405180910390f35b34801561044957600080fd5b506104706004803603602081101561046057600080fd5b5035600160a060020a0316610c68565b60408051938452600160a060020a03909216602084015282820152519081900360600190f35b3480156104a257600080fd5b5061015c600480360360208110156104b957600080fd5b5035600160a060020a0316610c94565b61015c600480360360408110156104df57600080fd5b5060ff81358116916020013516610d37565b3480156104fd57600080fd5b506102346004803603602081101561051457600080fd5b503560ff1661110f565b34801561052a57600080fd5b50610203611121565b61053c82610a5d565b15610591576040805160e560020a62461bcd02815260206004820152600b60248201527f7573657220657869737473000000000000000000000000000000000000000000604482015290519081900360640190fd5b61059a81610a5d565b15156105f0576040805160e560020a62461bcd02815260206004820152601360248201527f7265666572726572206e6f742065786973747300000000000000000000000000604482015290519081900360640190fd5b813b63ffffffff81161561064e576040805160e560020a62461bcd02815260206004820152601460248201527f63616e6e6f74206265206120636f6e7472616374000000000000000000000000604482015290519081900360640190fd5b600754600160a060020a03161561075957600754604080517ff9609f08000000000000000000000000000000000000000000000000000000008152600160a060020a03868116600483015285811660248301529151919092169163f9609f0891604480830192600092919082900301818387803b1580156106ce57600080fd5b505af11580156106e2573d6000803e3d6000fd5b50506000805460ff16815260066020526040902054600302341491506107549050576040805160e560020a62461bcd02815260206004820152601960248201527f696e76616c696420726567697374726174696f6e20636f737400000000000000604482015290519081900360640190fd5b6107c5565b6000805460ff1681526006602052604090205460020234146107c5576040805160e560020a62461bcd02815260206004820152601960248201527f696e76616c696420726567697374726174696f6e20636f737400000000000000604482015290519081900360640190fd5b6004805460010190556107d66126af565b5060408051606081018252600480548252600160a060020a03808616602080850182815260008688018181528b861680835260018086528a84208a5181559451858201805491909916600160a060020a03199182161789559251600280870191909155895485528087528b85208054851684179055885484168817909855808452600394850186528a8420805460ff1916821790559754835292845288822080549091169092179091559182528390529384200180548201905590919061089e9086906109b3565b600160a060020a0386811660009081526001602081815260408084208385526004019091529091208054600160a060020a031916928416929092179091559091506108ec9086908390611130565b600160a060020a038086166000818152600160209081526040808320549489168084529281902054815190815290519293927f309bb360e8b69c23937ccc5fb01f9aeeead1c95a99604e175113ff82f2b1723a929181900390910190a45050505050565b6014015190565b600160a060020a038216600090815260016020908152604080832060ff8086168552600390910190925290912054165b92915050565b600f81565b600260205260009081526040902054600160a060020a031681565b60045481565b60005b600160a060020a03808416600090815260016020818152604080842090920154909316825280822060ff808716845260039091019093529020541615610a1b5750600160a060020a038083166000908152600160208190526040909120015416610987565b600160a060020a0392831660009081526001602081905260409091200154909216916109b6565b600360205260009081526040902054600160a060020a031681565b600160a060020a0316600090815260016020526040902054151590565b60005460ff1681565b610a8d3382610533565b50565b73c25ca3567626a6845103d2cbb5cdcf268fa4d96a3314610afb576040805160e560020a62461bcd02815260206004820152600960248201527f6f6e6c794f776e65720000000000000000000000000000000000000000000000604482015290519081900360640190fd5b60405173c25ca3567626a6845103d2cbb5cdcf268fa4d96a90303180156108fc02916000818181858888f19350505050158015610a8d573d6000803e3d6000fd5b600554600160a060020a031681565b600160a060020a03828116600090815260016020818152604080842060ff878116865260049091018352818520805460038201546005830154968301805486518189028101890190975280875298996060998a998c998a99968416989497600201969590941694921692869190830182828015610bf157602002820191906000526020600020905b8154600160a060020a03168152600190910190602001808311610bd3575b5050505050935082805480602002602001604051908101604052809291908181526020018280548015610c4d57602002820191906000526020600020905b8154600160a060020a03168152600190910190602001808311610c2f575b50505050509250945094509450945094509295509295909350565b6001602081905260009182526040909120805491810154600290910154600160a060020a039091169083565b73c25ca3567626a6845103d2cbb5cdcf268fa4d96a3314610cff576040805160e560020a62461bcd02815260206004820152600960248201527f6f6e6c794f776e65720000000000000000000000000000000000000000000000604482015290519081900360640190fd5b600754600160a060020a031615610d1557600080fd5b60078054600160a060020a031916600160a060020a0392909216919091179055565b610d4033610a5d565b1515610dbc576040805160e560020a62461bcd02815260206004820152602360248201527f75736572206973206e6f74206578697374732e2052656769737465722066697260448201527f73742e0000000000000000000000000000000000000000000000000000000000606482015290519081900360840190fd5b600160ff831614610e17576040805160e560020a62461bcd02815260206004820152600e60248201527f696e76616c6964206d6174726978000000000000000000000000000000000000604482015290519081900360640190fd5b60ff81166000908152600660205260409020543414610e80576040805160e560020a62461bcd02815260206004820152600d60248201527f696e76616c696420707269636500000000000000000000000000000000000000604482015290519081900360640190fd5b60018160ff16118015610e975750600f60ff821611155b1515610eed576040805160e560020a62461bcd02815260206004820152600d60248201527f696e76616c6964206c6576656c00000000000000000000000000000000000000604482015290519081900360640190fd5b8160ff166001141561110b5733600090815260016020908152604080832060ff600019860181168552600390910190925290912054161515610f79576040805160e560020a62461bcd02815260206004820152601860248201527f6275792070726576696f7573206c6576656c2066697273740000000000000000604482015290519081900360640190fd5b33600090815260016020908152604080832060ff80861685526003909101909252909120541615610ff4576040805160e560020a62461bcd02815260206004820152601760248201527f6c6576656c20616c726561647920616374697661746564000000000000000000604482015290519081900360640190fd5b33600090815260016020908152604080832060ff60001986018116855260049091019092529091206003015416156110565733600090815260016020908152604080832060ff60001986011684526004019091529020600301805460ff191690555b600061106233836109b3565b33600081815260016020818152604080842060ff891685526004810183528185208054600160a060020a031916600160a060020a038916179055600301909152909120805460ff191690911790559091506110be908284611130565b604080516001815260ff841660208201528151600160a060020a0384169233927f18a92df19fd94d6cfff209966673a5ca05a1c8e2bb68e097fce2bdc2ed811119929081900390910190a3505b5050565b60066020526000908152604090205481565b600754600160a060020a031681565b600160a060020a038216600090815260016020908152604080832060ff80861685526003909101909252909120541615156111b5576040805160e560020a62461bcd02815260206004820152601f60248201527f3530302e205265666572726572206c6576656c20697320696e61637469766500604482015290519081900360640190fd5b600160a060020a038216600090815260016020818152604080842060ff8616855260040190915290912001546002111561171d57600160a060020a03828116600081815260016020818152604080842060ff88811680875260049092018452828620850180548087018255818852858820018054600160a060020a031916998d16998a1790559582905294548251948552928401529216818301529051919291600080516020612767833981519152916060908290030190a3600160a060020a03838116600090815260016020908152604080832060ff8616845260040190915290208054600160a060020a03191684831690811790915560055490911614156112cb576112c68284600184611adb565b611ad6565b600160a060020a03828116600090815260016020818152604080842060ff87168086526004918201845282862054871680875285855283872082885290920184529185206002808201805480880182559088529487209094018054600160a060020a031916978b1697909717909655935292015490918114801561139d5750600160a060020a03828116600090815260016020818152604080842060ff89168552600401909152822001805492871692909190811061138657fe5b600091825260209091200154600160a060020a0316145b80156113f95750600160a060020a03828116600090815260016020818152604080842060ff89168552600401909152909120810180549287169290919081106113e257fe5b600091825260209091200154600160a060020a0316145b156114be57600160a060020a038416600090815260016020818152604080842060ff88168552600401909152909120810154141561147757604080516001815260ff851660208201526005818301529051600160a060020a0380851692908816916000805160206127678339815191529181900360600190a36114b9565b604080516001815260ff851660208201526006818301529051600160a060020a0380851692908816916000805160206127678339815191529181900360600190a35b61170b565b80600114806114cd5750806002145b80156115275750600160a060020a03828116600090815260016020818152604080842060ff89168552600401909152822001805492871692909190811061151057fe5b600091825260209091200154600160a060020a0316145b156115eb57600160a060020a038416600090815260016020818152604080842060ff8816855260040190915290912081015414156115a557604080516001815260ff851660208201526003818301529051600160a060020a0380851692908816916000805160206127678339815191529181900360600190a36114b9565b604080516001815260ff851660208201526004818301529051600160a060020a0380851692908816916000805160206127678339815191529181900360600190a361170b565b80600214801561164b5750600160a060020a03828116600090815260016020818152604080842060ff891685526004019091529091208101805492871692909190811061163457fe5b600091825260209091200154600160a060020a0316145b1561170b57600160a060020a038416600090815260016020818152604080842060ff8816855260040190915290912081015414156116c957604080516001815260ff851660208201526005818301529051600160a060020a0380851692908816916000805160206127678339815191529181900360600190a361170b565b604080516001815260ff851660208201526006818301529051600160a060020a0380851692908816916000805160206127678339815191529181900360600190a35b611716858385611bc8565b5050611ad6565b600160a060020a03828116600090815260016020818152604080842060ff871680865260049091018352908420600281018054948501815585529184209092018054600160a060020a031916888616179055915260050154161561190657600160a060020a038216600090815260016020818152604080842060ff861685526004019091529091208101805490919081106117b457fe5b6000918252602080832090910154600160a060020a0385811684526001808452604080862060ff8816875260040190945292842090920180549290911692909181106117fc57fe5b600091825260209091200154600160a060020a03161480156118725750600160a060020a03828116600090815260016020818152604080842060ff87168552600401909152822060058101549101805491909316929190811061185b57fe5b600091825260209091200154600160a060020a0316145b1561188f57611884838383600161205b565b6112c6838383611bc8565b600160a060020a03828116600090815260016020818152604080842060ff8716855260040190915282206005810154910180549190931692919081106118d157fe5b600091825260209091200154600160a060020a031614156118f957611884838383600161205b565b611884838383600061205b565b600160a060020a03828116600090815260016020818152604080842060ff871685526004019091529091208101805492861692909190811061194457fe5b600091825260209091200154600160a060020a0316141561196c57611884838383600061205b565b600160a060020a03828116600090815260016020818152604080842060ff8716855260040190915282200180549286169290919081106119a857fe5b600091825260209091200154600160a060020a031614156119d057611884838383600161205b565b600160a060020a038216600090815260016020818152604080842060ff8616855260040190915282208101805491929183908110611a0a57fe5b6000918252602080832090910154600160a060020a039081168452838201949094526040928301822060ff861680845260049182018352848420600190810154968916855280845285852091855291019091529181208201805482908110611a6e57fe5b6000918252602080832090910154600160a060020a03168352828101939093526040918201812060ff8616825260040190925290206001015411611abe57611ab9838383600061205b565b611acb565b611acb838383600161205b565b611ad6838383611bc8565b505050565b600080611aea868686866125c7565b6040519193509150600160a060020a03831690303180156108fc02916000818181858888f193505050501515611b6a576040805160e560020a62461bcd02815260206004820152601460248201527f4661696c656420746f2073656e64204574686572000000000000000000000000604482015290519081900360640190fd5b8015611bc0576040805160ff8087168252851660208201528151600160a060020a0380861693908916927ff0ddc65c0d411f042f723dcfa1b7d13e85a35b7b70761d447c6500411cacf328929081900390910190a35b505050505050565b600160a060020a038216600090815260016020908152604080832060ff851684526004908101909252909120600201541015611c0b576112c68284600184611adb565b600160a060020a03808316600090815260016020818152604080842060ff8716808652600491820184528286205490961685528383528185209585529490940181529183902001805483518184028101840190945280845260609392830182828015611ca057602002820191906000526020600020905b8154600160a060020a03168152600190910190602001808311611c82575b50505050509050805160021415611e0d5782600160a060020a0316816000815181101515611cca57fe5b90602001906020020151600160a060020a03161480611d12575082600160a060020a0316816001815181101515611cfd57fe5b90602001906020020151600160a060020a0316145b15611d7657600160a060020a03808416600081815260016020818152604080842060ff891680865260049182018452828620549097168552928252808420958452949091019052919091206005018054600160a060020a0319169091179055611e0d565b805160011415611e0d5782600160a060020a0316816000815181101515611d9957fe5b90602001906020020151600160a060020a03161415611e0d57600160a060020a03808416600081815260016020818152604080842060ff891680865260049182018452828620549097168552928252808420958452949091019052919091206005018054600160a060020a03191690911790555b6040805160008082526020808301808552600160a060020a0388168352600180835285842060ff89168552600401909252939091209151611e53939290910191906126da565b506040805160008082526020808301808552600160a060020a03881683526001825284832060ff881684526004019091529290209051611e9992600290920191906126da565b50600160a060020a038316600090815260016020818152604080842060ff80881686526004820184528286206005018054600160a060020a0319169055938701841685526003019091529091205416158015611ef9575060ff8216600f14155b15611f3757600160a060020a038316600090815260016020818152604080842060ff87168552600401909152909120600301805460ff191690911790555b600160a060020a03808416600081815260016020818152604080842060ff8916855260049081019092529092209091018054909101905560055490911614611fe9576000611f8584846109b3565b604080516001815260ff861660208201528151929350600160a060020a038089169381861693918916927fa00c953eff38ec1b71e7fe060b2ab8df0bbe5354319fbdde4fbdafd6324386a692908290030190a4611fe3848285611130565b50612055565b600554604080516001815260ff851660208201528151600160a060020a03808916946000949116927fa00c953eff38ec1b71e7fe060b2ab8df0bbe5354319fbdde4fbdafd6324386a6929081900390910190a460055461205590600160a060020a031685600185611adb565b50505050565b80151561231457600160a060020a038316600090815260016020818152604080842060ff871685526004019091528220810180549192918290811061209c57fe5b600091825260208083209190910154600160a060020a039081168452838201949094526040928301822060ff871680845260049182018352848420600190810180548083018255908652848620018054600160a060020a0319168c891617905595891684528583528484209084520190529081209091018054909190811061212057fe5b6000918252602080832090910154600160a060020a0386811684526001808452604080862060ff89168752600401909452928420830180549282169491891693600080516020612767833981519152939092889284928290811061218057fe5b6000918252602080832090910154600160a060020a03168352828101939093526040918201812060ff808c1683526004909101845290829020600101548251958216865293811692850192909252911682820152519081900360600190a3600160a060020a03808416600081815260016020818152604080842060ff89168552600401909152822081018054939489169360008051602061276783398151915293889284928290811061222f57fe5b6000918252602080832090910154600160a060020a03168352828101939093526040918201812060ff808c168352600490910184529082902060010154825195821686529381169285019290925260029092011682820152519081900360600190a3600160a060020a038316600090815260016020818152604080842060ff87168552600401909152822001805490919081106122c857fe5b6000918252602080832090910154600160a060020a03878116845260018352604080852060ff88168652600401909352919092208054600160a060020a03191691909216179055612055565b600160a060020a038316600090815260016020818152604080842060ff871685526004019091528220810180549192918390811061234e57fe5b600091825260208083209190910154600160a060020a039081168452838201949094526040928301822060ff871680845260049182018352848420600190810180548083018255908652848620018054600160a060020a0319168c89161790559589168452858352848420908452019052208101805490919081106123cf57fe5b6000918252602080832090910154600160a060020a0386811684526001808452604080862060ff89168752600401909452928420830180549282169491891693600080516020612767833981519152939092889284928390811061242f57fe5b6000918252602080832090910154600160a060020a03168352828101939093526040918201812060ff808c1683526004909101845290829020600101548251958216865293811692850192909252911682820152519081900360600190a3600160a060020a03808416600081815260016020818152604080842060ff8916855260040190915282208101805493948916936000805160206127678339815191529388928492839081106124de57fe5b6000918252602080832090910154600160a060020a03168352828101939093526040918201812060ff808c16835260049182018552918390206001015483519683168752948216938601939093529290910190911682820152519081900360600190a3600160a060020a038316600090815260016020818152604080842060ff8716855260040190915290912081018054909190811061257a57fe5b6000918252602080832090910154600160a060020a03878116845260018352604080852060ff88168652600401909352919092208054600160a060020a0319169190921617905550505050565b6000808581600160ff871614156126a3575b600160a060020a038216600090815260016020908152604080832060ff808a168552600490910190925290912060030154161561269457604080516001815260ff871660208201528151600160a060020a03808b1693908616927ffc0cb63f8dbd6b20ceb84a3c5358a41576a1479e6ecd040b4b985525dc09a709929081900390910190a350600160a060020a03908116600090815260016020818152604080842060ff89168552600401909152909120549091169061269e565b90925090506126a6565b6125d9565b50505b94509492505050565b606060405190810160405280600081526020016000600160a060020a03168152602001600081525090565b82805482825590600052602060002090810192821561272f579160200282015b8281111561272f5782518254600160a060020a031916600160a060020a039091161782556020909201916001909101906126fa565b5061273b92915061273f565b5090565b61276391905b8082111561273b578054600160a060020a0319168155600101612745565b9056fe68062c5925c4317adf3a7095478d28b33fd8b41458bc7620b61bc46bf1b24d82a165627a7a7230582017ca6c92eeb8dabe0439eb945b7b4b25abdef041b5a459cdccad3d9e292793d50029","opcodes":"PUSH1 0x80 PUSH1 0x40 MSTORE PUSH1 0x0 DUP1 SLOAD PUSH1 0xFF NOT AND PUSH1 0x1 SWAP1 DUP2 OR SWAP1 SWAP2 SSTORE PUSH1 0x4 SSTORE CALLVALUE DUP1 ISZERO PUSH3 0x24 JUMPI PUSH1 0x0 DUP1 REVERT JUMPDEST POP PUSH1 0x40 MLOAD PUSH1 0x20 DUP1 PUSH3 0x2C18 DUP4 CODECOPY DUP2 ADD DUP1 PUSH1 0x40 MSTORE PUSH1 0x20 DUP2 LT ISZERO PUSH3 0x46 JUMPI PUSH1 0x0 DUP1 REVERT JUMPDEST POP MLOAD PUSH1 0x6 PUSH1 0x20 MSTORE PUSH6 0x5AF3107A4000 PUSH32 0x3E5FEC24AA4DC4E5AEE2E025E51E1392C72A2500577559FAE9665C6D52BD6A31 SSTORE PUSH7 0x71AFD498D0000 PUSH32 0x8819EF417987F8AE7A81F42CDFB18815282FE989326FBFF903D13CF0E03ACE29 SSTORE PUSH7 0x8E1BC9BF040000 PUSH32 0x75F96AB15D697E93042DC45B5C896C4B27E89BB6EAF39475C5C371CB2513F7D2 SSTORE PUSH8 0xB1A2BC2EC500000 PUSH32 0xC5069E24AAADB2ADDC3E52E868FCF3F4F8ACF5A87E24300992FD4540C2A87EED SSTORE PUSH8 0xDE0B6B3A76400000 PUSH32 0xBFD358E93F18DA3ED276C3AFDBDBA00B8F0B6008A03476A6A86BD6320EE6938B SSTORE PUSH9 0x1BC16D674EC800000 PUSH32 0x697B2BD7BB2984C4E0DC14C79C987D37818484A62958B9C45A0E8B962F20650F SSTORE PUSH9 0x3782DACE9D9000000 PUSH32 0x4CED6D0D36392B04CC5D8761B1327B3BBBA6E1089C77F60A9A9CA18E05E4F00E SSTORE PUSH9 0x6F05B59D3B2000000 PUSH32 0xB8D683C9D414F481826F3E7FE14B3AC6AE8C73450778287390C4BB8CB9F2E80B SSTORE PUSH9 0xDE0B6B3A764000000 PUSH32 0xCA4D0C6C94A9477136DD41A99CC19ECBE441C8F6609EFE7C6FA65BE007A47323 SSTORE PUSH9 0x1BC16D674EC8000000 PUSH32 0x4DA38FC8E544AFC56A4C2A17752B8DDB67D8E23AC4583C9029D2E2D1DBE6C988 SSTORE PUSH9 0x3782DACE9D90000000 PUSH32 0x85291C2E7881182C13E19ECA9B58927EBFDC2C5D04882018EEB33D8241D35711 SSTORE PUSH9 0x6F05B59D3B20000000 PUSH32 0xB94FA1B86997CC1F1148BFBE25B674E8CEFC7CC6F976AA8D7C7966BD4CCA347 SSTORE PUSH9 0xC249FDD32778000000 PUSH32 0x248457BACB20E239AE314D8DB91C0F270E453C28EE138C84F97AEA6CFCF9A499 SSTORE PUSH10 0x154017C318512000000 PUSH32 0xACA6CDB4B5FE0EC50731A73F714DD191DC1911BFEB3F9EEB9E94ED0F6065EF8D SSTORE PUSH1 0xF PUSH1 0x0 MSTORE PUSH10 0x253029956A8DF800000 PUSH32 0xF130046D53BC87538AB17E4752BA5F5082985EECC06CCB932C5A55E8242DD502 SSTORE PUSH1 0x5 DUP1 SLOAD PUSH1 0x1 PUSH1 0xA0 PUSH1 0x2 EXP SUB NOT AND PUSH1 0x1 PUSH1 0xA0 PUSH1 0x2 EXP SUB DUP4 AND OR SWAP1 SSTORE PUSH3 0x304 PUSH3 0x42B JUMP JUMPDEST POP PUSH1 0x40 DUP1 MLOAD PUSH1 0x60 DUP2 ADD DUP3 MSTORE PUSH1 0x1 DUP1 DUP3 MSTORE PUSH1 0x0 PUSH1 0x20 DUP1 DUP5 ADD DUP3 DUP2 MSTORE DUP5 DUP7 ADD DUP4 DUP2 MSTORE PUSH1 0x1 PUSH1 0xA0 PUSH1 0x2 EXP SUB DUP9 DUP2 AND DUP1 DUP7 MSTORE DUP7 DUP6 MSTORE SWAP8 DUP6 KECCAK256 DUP8 MLOAD DUP2 SSTORE SWAP3 MLOAD DUP4 DUP8 ADD DUP1 SLOAD SWAP2 SWAP1 SWAP3 AND PUSH1 0x1 PUSH1 0xA0 PUSH1 0x2 EXP SUB NOT SWAP2 DUP3 AND OR SWAP1 SWAP2 SSTORE SWAP1 MLOAD PUSH1 0x2 SWAP3 DUP4 ADD SSTORE SWAP3 DUP5 SWAP1 MSTORE SWAP1 MSTORE PUSH32 0xE90B7BCEB6E7DF5418FB78D8EE546E97C83A08BBCCC01A0644D599CCD2A7C2E0 DUP1 SLOAD SWAP1 SWAP2 AND SWAP1 SWAP4 OR SWAP1 SWAP3 SSTORE SWAP1 JUMPDEST PUSH1 0xF PUSH1 0xFF DUP3 AND GT PUSH3 0x3DA JUMPI PUSH1 0x1 PUSH1 0xA0 PUSH1 0x2 EXP SUB DUP4 AND PUSH1 0x0 SWAP1 DUP2 MSTORE PUSH1 0x1 PUSH1 0x20 DUP2 DUP2 MSTORE PUSH1 0x40 DUP1 DUP5 KECCAK256 PUSH1 0xFF DUP7 AND DUP6 MSTORE PUSH1 0x3 ADD SWAP1 SWAP2 MSTORE SWAP1 SWAP2 KECCAK256 DUP1 SLOAD PUSH1 0xFF NOT AND DUP3 OR SWAP1 SSTORE ADD PUSH3 0x393 JUMP JUMPDEST POP POP PUSH1 0x1 PUSH1 0x0 MSTORE PUSH1 0x3 PUSH1 0x20 MSTORE PUSH32 0xA15BC60C955C405D20D9149C709E2460F1C2D9A497496A7F46004D1772C3054C DUP1 SLOAD PUSH1 0x1 PUSH1 0xA0 PUSH1 0x2 EXP SUB NOT AND PUSH1 0x1 PUSH1 0xA0 PUSH1 0x2 EXP SUB SWAP3 SWAP1 SWAP3 AND SWAP2 SWAP1 SWAP2 OR SWAP1 SSTORE PUSH3 0x456 JUMP JUMPDEST PUSH1 0x60 PUSH1 0x40 MLOAD SWAP1 DUP2 ADD PUSH1 0x40 MSTORE DUP1 PUSH1 0x0 DUP2 MSTORE PUSH1 0x20 ADD PUSH1 0x0 PUSH1 0x1 PUSH1 0xA0 PUSH1 0x2 EXP SUB AND DUP2 MSTORE PUSH1 0x20 ADD PUSH1 0x0 DUP2 MSTORE POP SWAP1 JUMP JUMPDEST PUSH2 0x27B2 DUP1 PUSH3 0x466 PUSH1 0x0 CODECOPY PUSH1 0x0 RETURN INVALID PUSH1 0x80 PUSH1 0x40 MSTORE PUSH1 0x4 CALLDATASIZE LT PUSH2 0xF0 JUMPI PUSH4 0xFFFFFFFF PUSH29 0x100000000000000000000000000000000000000000000000000000000 PUSH1 0x0 CALLDATALOAD DIV AND PUSH4 0x2787C848 DUP2 EQ PUSH2 0x15E JUMPI DUP1 PUSH4 0x29C70400 EQ PUSH2 0x1AE JUMPI DUP1 PUSH4 0x2A2D0C47 EQ PUSH2 0x1D9 JUMPI DUP1 PUSH4 0x348D4487 EQ PUSH2 0x21F JUMPI DUP1 PUSH4 0x3DEF2F0E EQ PUSH2 0x246 JUMPI DUP1 PUSH4 0x4635FD68 EQ PUSH2 0x282 JUMPI DUP1 PUSH4 0x509222CD EQ PUSH2 0x2AC JUMPI DUP1 PUSH4 0x79621FCC EQ PUSH2 0x2DF JUMPI DUP1 PUSH4 0x797EEE24 EQ PUSH2 0x2F4 JUMPI DUP1 PUSH4 0x899CDB90 EQ PUSH2 0x31A JUMPI DUP1 PUSH4 0x8DA5CB5B EQ PUSH2 0x32F JUMPI DUP1 PUSH4 0xA4C85D90 EQ PUSH2 0x344 JUMPI DUP1 PUSH4 0xA87430BA EQ PUSH2 0x43D JUMPI DUP1 PUSH4 0xB2D4259C EQ PUSH2 0x496 JUMPI DUP1 PUSH4 0xBE389D57 EQ PUSH2 0x4C9 JUMPI DUP1 PUSH4 0xECABDF79 EQ PUSH2 0x4F1 JUMPI DUP1 PUSH4 0xFE29A15B EQ PUSH2 0x51E JUMPI JUMPDEST CALLDATASIZE ISZERO ISZERO PUSH2 0x113 JUMPI PUSH1 0x5 SLOAD PUSH2 0x10E SWAP1 CALLER SWAP1 PUSH1 0x1 PUSH1 0xA0 PUSH1 0x2 EXP SUB AND PUSH2 0x533 JUMP JUMPDEST PUSH2 0x15C JUMP JUMPDEST PUSH2 0x15C CALLER PUSH2 0x157 PUSH1 0x0 CALLDATASIZE DUP1 DUP1 PUSH1 0x1F ADD PUSH1 0x20 DUP1 SWAP2 DIV MUL PUSH1 0x20 ADD PUSH1 0x40 MLOAD SWAP1 DUP2 ADD PUSH1 0x40 MSTORE DUP1 SWAP4 SWAP3 SWAP2 SWAP1 DUP2 DUP2 MSTORE PUSH1 0x20 ADD DUP4 DUP4 DUP1 DUP3 DUP5 CALLDATACOPY PUSH1 0x0 SWAP3 ADD SWAP2 SWAP1 SWAP2 MSTORE POP PUSH2 0x950 SWAP3 POP POP POP JUMP JUMPDEST PUSH2 0x533 JUMP JUMPDEST STOP JUMPDEST CALLVALUE DUP1 ISZERO PUSH2 0x16A JUMPI PUSH1 0x0 DUP1 REVERT JUMPDEST POP PUSH2 0x19A PUSH1 0x4 DUP1 CALLDATASIZE SUB PUSH1 0x40 DUP2 LT ISZERO PUSH2 0x181 JUMPI PUSH1 0x0 DUP1 REVERT JUMPDEST POP DUP1 CALLDATALOAD PUSH1 0x1 PUSH1 0xA0 PUSH1 0x2 EXP SUB AND SWAP1 PUSH1 0x20 ADD CALLDATALOAD PUSH1 0xFF AND PUSH2 0x957 JUMP JUMPDEST PUSH1 0x40 DUP1 MLOAD SWAP2 ISZERO ISZERO DUP3 MSTORE MLOAD SWAP1 DUP2 SWAP1 SUB PUSH1 0x20 ADD SWAP1 RETURN JUMPDEST CALLVALUE DUP1 ISZERO PUSH2 0x1BA JUMPI PUSH1 0x0 DUP1 REVERT JUMPDEST POP PUSH2 0x1C3 PUSH2 0x98D JUMP JUMPDEST PUSH1 0x40 DUP1 MLOAD PUSH1 0xFF SWAP1 SWAP3 AND DUP3 MSTORE MLOAD SWAP1 DUP2 SWAP1 SUB PUSH1 0x20 ADD SWAP1 RETURN JUMPDEST CALLVALUE DUP1 ISZERO PUSH2 0x1E5 JUMPI PUSH1 0x0 DUP1 REVERT JUMPDEST POP PUSH2 0x203 PUSH1 0x4 DUP1 CALLDATASIZE SUB PUSH1 0x20 DUP2 LT ISZERO PUSH2 0x1FC JUMPI PUSH1 0x0 DUP1 REVERT JUMPDEST POP CALLDATALOAD PUSH2 0x992 JUMP JUMPDEST PUSH1 0x40 DUP1 MLOAD PUSH1 0x1 PUSH1 0xA0 PUSH1 0x2 EXP SUB SWAP1 SWAP3 AND DUP3 MSTORE MLOAD SWAP1 DUP2 SWAP1 SUB PUSH1 0x20 ADD SWAP1 RETURN JUMPDEST CALLVALUE DUP1 ISZERO PUSH2 0x22B JUMPI PUSH1 0x0 DUP1 REVERT JUMPDEST POP PUSH2 0x234 PUSH2 0x9AD JUMP JUMPDEST PUSH1 0x40 DUP1 MLOAD SWAP2 DUP3 MSTORE MLOAD SWAP1 DUP2 SWAP1 SUB PUSH1 0x20 ADD SWAP1 RETURN JUMPDEST CALLVALUE DUP1 ISZERO PUSH2 0x252 JUMPI PUSH1 0x0 DUP1 REVERT JUMPDEST POP PUSH2 0x203 PUSH1 0x4 DUP1 CALLDATASIZE SUB PUSH1 0x40 DUP2 LT ISZERO PUSH2 0x269 JUMPI PUSH1 0x0 DUP1 REVERT JUMPDEST POP DUP1 CALLDATALOAD PUSH1 0x1 PUSH1 0xA0 PUSH1 0x2 EXP SUB AND SWAP1 PUSH1 0x20 ADD CALLDATALOAD PUSH1 0xFF AND PUSH2 0x9B3 JUMP JUMPDEST CALLVALUE DUP1 ISZERO PUSH2 0x28E JUMPI PUSH1 0x0 DUP1 REVERT JUMPDEST POP PUSH2 0x203 PUSH1 0x4 DUP1 CALLDATASIZE SUB PUSH1 0x20 DUP2 LT ISZERO PUSH2 0x2A5 JUMPI PUSH1 0x0 DUP1 REVERT JUMPDEST POP CALLDATALOAD PUSH2 0xA42 JUMP JUMPDEST CALLVALUE DUP1 ISZERO PUSH2 0x2B8 JUMPI PUSH1 0x0 DUP1 REVERT JUMPDEST POP PUSH2 0x19A PUSH1 0x4 DUP1 CALLDATASIZE SUB PUSH1 0x20 DUP2 LT ISZERO PUSH2 0x2CF JUMPI PUSH1 0x0 DUP1 REVERT JUMPDEST POP CALLDATALOAD PUSH1 0x1 PUSH1 0xA0 PUSH1 0x2 EXP SUB AND PUSH2 0xA5D JUMP JUMPDEST CALLVALUE DUP1 ISZERO PUSH2 0x2EB JUMPI PUSH1 0x0 DUP1 REVERT JUMPDEST POP PUSH2 0x1C3 PUSH2 0xA7A JUMP JUMPDEST PUSH2 0x15C PUSH1 0x4 DUP1 CALLDATASIZE SUB PUSH1 0x20 DUP2 LT ISZERO PUSH2 0x30A JUMPI PUSH1 0x0 DUP1 REVERT JUMPDEST POP CALLDATALOAD PUSH1 0x1 PUSH1 0xA0 PUSH1 0x2 EXP SUB AND PUSH2 0xA83 JUMP JUMPDEST CALLVALUE DUP1 ISZERO PUSH2 0x326 JUMPI PUSH1 0x0 DUP1 REVERT JUMPDEST POP PUSH2 0x15C PUSH2 0xA90 JUMP JUMPDEST CALLVALUE DUP1 ISZERO PUSH2 0x33B JUMPI PUSH1 0x0 DUP1 REVERT JUMPDEST POP PUSH2 0x203 PUSH2 0xB3C JUMP JUMPDEST CALLVALUE DUP1 ISZERO PUSH2 0x350 JUMPI PUSH1 0x0 DUP1 REVERT JUMPDEST POP PUSH2 0x380 PUSH1 0x4 DUP1 CALLDATASIZE SUB PUSH1 0x40 DUP2 LT ISZERO PUSH2 0x367 JUMPI PUSH1 0x0 DUP1 REVERT JUMPDEST POP DUP1 CALLDATALOAD PUSH1 0x1 PUSH1 0xA0 PUSH1 0x2 EXP SUB AND SWAP1 PUSH1 0x20 ADD CALLDATALOAD PUSH1 0xFF AND PUSH2 0xB4B JUMP JUMPDEST PUSH1 0x40 DUP1 MLOAD PUSH1 0x1 PUSH1 0xA0 PUSH1 0x2 EXP SUB DUP1 DUP9 AND DUP3 MSTORE DUP5 ISZERO ISZERO PUSH1 0x60 DUP4 ADD MSTORE DUP4 AND PUSH1 0x80 DUP3 ADD MSTORE PUSH1 0xA0 PUSH1 0x20 DUP1 DUP4 ADD DUP3 DUP2 MSTORE DUP9 MLOAD SWAP3 DUP5 ADD SWAP3 SWAP1 SWAP3 MSTORE DUP8 MLOAD SWAP3 SWAP4 SWAP2 SWAP3 SWAP2 DUP5 ADD SWAP2 PUSH1 0xC0 DUP6 ADD SWAP2 DUP10 DUP2 ADD SWAP2 MUL DUP1 DUP4 DUP4 PUSH1 0x0 JUMPDEST DUP4 DUP2 LT ISZERO PUSH2 0x3E5 JUMPI DUP2 DUP2 ADD MLOAD DUP4 DUP3 ADD MSTORE PUSH1 0x20 ADD PUSH2 0x3CD JUMP JUMPDEST POP POP POP POP SWAP1 POP ADD DUP4 DUP2 SUB DUP3 MSTORE DUP7 DUP2 DUP2 MLOAD DUP2 MSTORE PUSH1 0x20 ADD SWAP2 POP DUP1 MLOAD SWAP1 PUSH1 0x20 ADD SWAP1 PUSH1 0x20 MUL DUP1 DUP4 DUP4 PUSH1 0x0 JUMPDEST DUP4 DUP2 LT ISZERO PUSH2 0x424 JUMPI DUP2 DUP2 ADD MLOAD DUP4 DUP3 ADD MSTORE PUSH1 0x20 ADD PUSH2 0x40C JUMP JUMPDEST POP POP POP POP SWAP1 POP ADD SWAP8 POP POP POP POP POP POP POP POP PUSH1 0x40 MLOAD DUP1 SWAP2 SUB SWAP1 RETURN JUMPDEST CALLVALUE DUP1 ISZERO PUSH2 0x449 JUMPI PUSH1 0x0 DUP1 REVERT JUMPDEST POP PUSH2 0x470 PUSH1 0x4 DUP1 CALLDATASIZE SUB PUSH1 0x20 DUP2 LT ISZERO PUSH2 0x460 JUMPI PUSH1 0x0 DUP1 REVERT JUMPDEST POP CALLDATALOAD PUSH1 0x1 PUSH1 0xA0 PUSH1 0x2 EXP SUB AND PUSH2 0xC68 JUMP JUMPDEST PUSH1 0x40 DUP1 MLOAD SWAP4 DUP5 MSTORE PUSH1 0x1 PUSH1 0xA0 PUSH1 0x2 EXP SUB SWAP1 SWAP3 AND PUSH1 0x20 DUP5 ADD MSTORE DUP3 DUP3 ADD MSTORE MLOAD SWAP1 DUP2 SWAP1 SUB PUSH1 0x60 ADD SWAP1 RETURN JUMPDEST CALLVALUE DUP1 ISZERO PUSH2 0x4A2 JUMPI PUSH1 0x0 DUP1 REVERT JUMPDEST POP PUSH2 0x15C PUSH1 0x4 DUP1 CALLDATASIZE SUB PUSH1 0x20 DUP2 LT ISZERO PUSH2 0x4B9 JUMPI PUSH1 0x0 DUP1 REVERT JUMPDEST POP CALLDATALOAD PUSH1 0x1 PUSH1 0xA0 PUSH1 0x2 EXP SUB AND PUSH2 0xC94 JUMP JUMPDEST PUSH2 0x15C PUSH1 0x4 DUP1 CALLDATASIZE SUB PUSH1 0x40 DUP2 LT ISZERO PUSH2 0x4DF JUMPI PUSH1 0x0 DUP1 REVERT JUMPDEST POP PUSH1 0xFF DUP2 CALLDATALOAD DUP2 AND SWAP2 PUSH1 0x20 ADD CALLDATALOAD AND PUSH2 0xD37 JUMP JUMPDEST CALLVALUE DUP1 ISZERO PUSH2 0x4FD JUMPI PUSH1 0x0 DUP1 REVERT JUMPDEST POP PUSH2 0x234 PUSH1 0x4 DUP1 CALLDATASIZE SUB PUSH1 0x20 DUP2 LT ISZERO PUSH2 0x514 JUMPI PUSH1 0x0 DUP1 REVERT JUMPDEST POP CALLDATALOAD PUSH1 0xFF AND PUSH2 0x110F JUMP JUMPDEST CALLVALUE DUP1 ISZERO PUSH2 0x52A JUMPI PUSH1 0x0 DUP1 REVERT JUMPDEST POP PUSH2 0x203 PUSH2 0x1121 JUMP JUMPDEST PUSH2 0x53C DUP3 PUSH2 0xA5D JUMP JUMPDEST ISZERO PUSH2 0x591 JUMPI PUSH1 0x40 DUP1 MLOAD PUSH1 0xE5 PUSH1 0x2 EXP PUSH3 0x461BCD MUL DUP2 MSTORE PUSH1 0x20 PUSH1 0x4 DUP3 ADD MSTORE PUSH1 0xB PUSH1 0x24 DUP3 ADD MSTORE PUSH32 0x7573657220657869737473000000000000000000000000000000000000000000 PUSH1 0x44 DUP3 ADD MSTORE SWAP1 MLOAD SWAP1 DUP2 SWAP1 SUB PUSH1 0x64 ADD SWAP1 REVERT JUMPDEST PUSH2 0x59A DUP2 PUSH2 0xA5D JUMP JUMPDEST ISZERO ISZERO PUSH2 0x5F0 JUMPI PUSH1 0x40 DUP1 MLOAD PUSH1 0xE5 PUSH1 0x2 EXP PUSH3 0x461BCD MUL DUP2 MSTORE PUSH1 0x20 PUSH1 0x4 DUP3 ADD MSTORE PUSH1 0x13 PUSH1 0x24 DUP3 ADD MSTORE PUSH32 0x7265666572726572206E6F742065786973747300000000000000000000000000 PUSH1 0x44 DUP3 ADD MSTORE SWAP1 MLOAD SWAP1 DUP2 SWAP1 SUB PUSH1 0x64 ADD SWAP1 REVERT JUMPDEST DUP2 EXTCODESIZE PUSH4 0xFFFFFFFF DUP2 AND ISZERO PUSH2 0x64E JUMPI PUSH1 0x40 DUP1 MLOAD PUSH1 0xE5 PUSH1 0x2 EXP PUSH3 0x461BCD MUL DUP2 MSTORE PUSH1 0x20 PUSH1 0x4 DUP3 ADD MSTORE PUSH1 0x14 PUSH1 0x24 DUP3 ADD MSTORE PUSH32 0x63616E6E6F74206265206120636F6E7472616374000000000000000000000000 PUSH1 0x44 DUP3 ADD MSTORE SWAP1 MLOAD SWAP1 DUP2 SWAP1 SUB PUSH1 0x64 ADD SWAP1 REVERT JUMPDEST PUSH1 0x7 SLOAD PUSH1 0x1 PUSH1 0xA0 PUSH1 0x2 EXP SUB AND ISZERO PUSH2 0x759 JUMPI PUSH1 0x7 SLOAD PUSH1 0x40 DUP1 MLOAD PUSH32 0xF9609F0800000000000000000000000000000000000000000000000000000000 DUP2 MSTORE PUSH1 0x1 PUSH1 0xA0 PUSH1 0x2 EXP SUB DUP7 DUP2 AND PUSH1 0x4 DUP4 ADD MSTORE DUP6 DUP2 AND PUSH1 0x24 DUP4 ADD MSTORE SWAP2 MLOAD SWAP2 SWAP1 SWAP3 AND SWAP2 PUSH4 0xF9609F08 SWAP2 PUSH1 0x44 DUP1 DUP4 ADD SWAP3 PUSH1 0x0 SWAP3 SWAP2 SWAP1 DUP3 SWAP1 SUB ADD DUP2 DUP4 DUP8 DUP1 EXTCODESIZE ISZERO DUP1 ISZERO PUSH2 0x6CE JUMPI PUSH1 0x0 DUP1 REVERT JUMPDEST POP GAS CALL ISZERO DUP1 ISZERO PUSH2 0x6E2 JUMPI RETURNDATASIZE PUSH1 0x0 DUP1 RETURNDATACOPY RETURNDATASIZE PUSH1 0x0 REVERT JUMPDEST POP POP PUSH1 0x0 DUP1 SLOAD PUSH1 0xFF AND DUP2 MSTORE PUSH1 0x6 PUSH1 0x20 MSTORE PUSH1 0x40 SWAP1 KECCAK256 SLOAD PUSH1 0x3 MUL CALLVALUE EQ SWAP2 POP PUSH2 0x754 SWAP1 POP JUMPI PUSH1 0x40 DUP1 MLOAD PUSH1 0xE5 PUSH1 0x2 EXP PUSH3 0x461BCD MUL DUP2 MSTORE PUSH1 0x20 PUSH1 0x4 DUP3 ADD MSTORE PUSH1 0x19 PUSH1 0x24 DUP3 ADD MSTORE PUSH32 0x696E76616C696420726567697374726174696F6E20636F737400000000000000 PUSH1 0x44 DUP3 ADD MSTORE SWAP1 MLOAD SWAP1 DUP2 SWAP1 SUB PUSH1 0x64 ADD SWAP1 REVERT JUMPDEST PUSH2 0x7C5 JUMP JUMPDEST PUSH1 0x0 DUP1 SLOAD PUSH1 0xFF AND DUP2 MSTORE PUSH1 0x6 PUSH1 0x20 MSTORE PUSH1 0x40 SWAP1 KECCAK256 SLOAD PUSH1 0x2 MUL CALLVALUE EQ PUSH2 0x7C5 JUMPI PUSH1 0x40 DUP1 MLOAD PUSH1 0xE5 PUSH1 0x2 EXP PUSH3 0x461BCD MUL DUP2 MSTORE PUSH1 0x20 PUSH1 0x4 DUP3 ADD MSTORE PUSH1 0x19 PUSH1 0x24 DUP3 ADD MSTORE PUSH32 0x696E76616C696420726567697374726174696F6E20636F737400000000000000 PUSH1 0x44 DUP3 ADD MSTORE SWAP1 MLOAD SWAP1 DUP2 SWAP1 SUB PUSH1 0x64 ADD SWAP1 REVERT JUMPDEST PUSH1 0x4 DUP1 SLOAD PUSH1 0x1 ADD SWAP1 SSTORE PUSH2 0x7D6 PUSH2 0x26AF JUMP JUMPDEST POP PUSH1 0x40 DUP1 MLOAD PUSH1 0x60 DUP2 ADD DUP3 MSTORE PUSH1 0x4 DUP1 SLOAD DUP3 MSTORE PUSH1 0x1 PUSH1 0xA0 PUSH1 0x2 EXP SUB DUP1 DUP7 AND PUSH1 0x20 DUP1 DUP6 ADD DUP3 DUP2 MSTORE PUSH1 0x0 DUP7 DUP9 ADD DUP2 DUP2 MSTORE DUP12 DUP7 AND DUP1 DUP4 MSTORE PUSH1 0x1 DUP1 DUP7 MSTORE DUP11 DUP5 KECCAK256 DUP11 MLOAD DUP2 SSTORE SWAP5 MLOAD DUP6 DUP3 ADD DUP1 SLOAD SWAP2 SWAP1 SWAP10 AND PUSH1 0x1 PUSH1 0xA0 PUSH1 0x2 EXP SUB NOT SWAP2 DUP3 AND OR DUP10 SSTORE SWAP3 MLOAD PUSH1 0x2 DUP1 DUP8 ADD SWAP2 SWAP1 SWAP2 SSTORE DUP10 SLOAD DUP6 MSTORE DUP1 DUP8 MSTORE DUP12 DUP6 KECCAK256 DUP1 SLOAD DUP6 AND DUP5 OR SWAP1 SSTORE DUP9 SLOAD DUP5 AND DUP9 OR SWAP1 SWAP9 SSTORE DUP1 DUP5 MSTORE PUSH1 0x3 SWAP5 DUP6 ADD DUP7 MSTORE DUP11 DUP5 KECCAK256 DUP1 SLOAD PUSH1 0xFF NOT AND DUP3 OR SWAP1 SSTORE SWAP8 SLOAD DUP4 MSTORE SWAP3 DUP5 MSTORE DUP9 DUP3 KECCAK256 DUP1 SLOAD SWAP1 SWAP2 AND SWAP1 SWAP3 OR SWAP1 SWAP2 SSTORE SWAP2 DUP3 MSTORE DUP4 SWAP1 MSTORE SWAP4 DUP5 KECCAK256 ADD DUP1 SLOAD DUP3 ADD SWAP1 SSTORE SWAP1 SWAP2 SWAP1 PUSH2 0x89E SWAP1 DUP7 SWAP1 PUSH2 0x9B3 JUMP JUMPDEST PUSH1 0x1 PUSH1 0xA0 PUSH1 0x2 EXP SUB DUP7 DUP2 AND PUSH1 0x0 SWAP1 DUP2 MSTORE PUSH1 0x1 PUSH1 0x20 DUP2 DUP2 MSTORE PUSH1 0x40 DUP1 DUP5 KECCAK256 DUP4 DUP6 MSTORE PUSH1 0x4 ADD SWAP1 SWAP2 MSTORE SWAP1 SWAP2 KECCAK256 DUP1 SLOAD PUSH1 0x1 PUSH1 0xA0 PUSH1 0x2 EXP SUB NOT AND SWAP3 DUP5 AND SWAP3 SWAP1 SWAP3 OR SWAP1 SWAP2 SSTORE SWAP1 SWAP2 POP PUSH2 0x8EC SWAP1 DUP7 SWAP1 DUP4 SWAP1 PUSH2 0x1130 JUMP JUMPDEST PUSH1 0x1 PUSH1 0xA0 PUSH1 0x2 EXP SUB DUP1 DUP7 AND PUSH1 0x0 DUP2 DUP2 MSTORE PUSH1 0x1 PUSH1 0x20 SWAP1 DUP2 MSTORE PUSH1 0x40 DUP1 DUP4 KECCAK256 SLOAD SWAP5 DUP10 AND DUP1 DUP5 MSTORE SWAP3 DUP2 SWAP1 KECCAK256 SLOAD DUP2 MLOAD SWAP1 DUP2 MSTORE SWAP1 MLOAD SWAP3 SWAP4 SWAP3 PUSH32 0x309BB360E8B69C23937CCC5FB01F9AEEEAD1C95A99604E175113FF82F2B1723A SWAP3 SWAP2 DUP2 SWAP1 SUB SWAP1 SWAP2 ADD SWAP1 LOG4 POP POP POP POP POP JUMP JUMPDEST PUSH1 0x14 ADD MLOAD SWAP1 JUMP JUMPDEST PUSH1 0x1 PUSH1 0xA0 PUSH1 0x2 EXP SUB DUP3 AND PUSH1 0x0 SWAP1 DUP2 MSTORE PUSH1 0x1 PUSH1 0x20 SWAP1 DUP2 MSTORE PUSH1 0x40 DUP1 DUP4 KECCAK256 PUSH1 0xFF DUP1 DUP7 AND DUP6 MSTORE PUSH1 0x3 SWAP1 SWAP2 ADD SWAP1 SWAP3 MSTORE SWAP1 SWAP2 KECCAK256 SLOAD AND JUMPDEST SWAP3 SWAP2 POP POP JUMP JUMPDEST PUSH1 0xF DUP2 JUMP JUMPDEST PUSH1 0x2 PUSH1 0x20 MSTORE PUSH1 0x0 SWAP1 DUP2 MSTORE PUSH1 0x40 SWAP1 KECCAK256 SLOAD PUSH1 0x1 PUSH1 0xA0 PUSH1 0x2 EXP SUB AND DUP2 JUMP JUMPDEST PUSH1 0x4 SLOAD DUP2 JUMP JUMPDEST PUSH1 0x0 JUMPDEST PUSH1 0x1 PUSH1 0xA0 PUSH1 0x2 EXP SUB DUP1 DUP5 AND PUSH1 0x0 SWAP1 DUP2 MSTORE PUSH1 0x1 PUSH1 0x20 DUP2 DUP2 MSTORE PUSH1 0x40 DUP1 DUP5 KECCAK256 SWAP1 SWAP3 ADD SLOAD SWAP1 SWAP4 AND DUP3 MSTORE DUP1 DUP3 KECCAK256 PUSH1 0xFF DUP1 DUP8 AND DUP5 MSTORE PUSH1 0x3 SWAP1 SWAP2 ADD SWAP1 SWAP4 MSTORE SWAP1 KECCAK256 SLOAD AND ISZERO PUSH2 0xA1B JUMPI POP PUSH1 0x1 PUSH1 0xA0 PUSH1 0x2 EXP SUB DUP1 DUP4 AND PUSH1 0x0 SWAP1 DUP2 MSTORE PUSH1 0x1 PUSH1 0x20 DUP2 SWAP1 MSTORE PUSH1 0x40 SWAP1 SWAP2 KECCAK256 ADD SLOAD AND PUSH2 0x987 JUMP JUMPDEST PUSH1 0x1 PUSH1 0xA0 PUSH1 0x2 EXP SUB SWAP3 DUP4 AND PUSH1 0x0 SWAP1 DUP2 MSTORE PUSH1 0x1 PUSH1 0x20 DUP2 SWAP1 MSTORE PUSH1 0x40 SWAP1 SWAP2 KECCAK256 ADD SLOAD SWAP1 SWAP3 AND SWAP2 PUSH2 0x9B6 JUMP JUMPDEST PUSH1 0x3 PUSH1 0x20 MSTORE PUSH1 0x0 SWAP1 DUP2 MSTORE PUSH1 0x40 SWAP1 KECCAK256 SLOAD PUSH1 0x1 PUSH1 0xA0 PUSH1 0x2 EXP SUB AND DUP2 JUMP JUMPDEST PUSH1 0x1 PUSH1 0xA0 PUSH1 0x2 EXP SUB AND PUSH1 0x0 SWAP1 DUP2 MSTORE PUSH1 0x1 PUSH1 0x20 MSTORE PUSH1 0x40 SWAP1 KECCAK256 SLOAD ISZERO ISZERO SWAP1 JUMP JUMPDEST PUSH1 0x0 SLOAD PUSH1 0xFF AND DUP2 JUMP JUMPDEST PUSH2 0xA8D CALLER DUP3 PUSH2 0x533 JUMP JUMPDEST POP JUMP JUMPDEST PUSH20 0xC25CA3567626A6845103D2CBB5CDCF268FA4D96A CALLER EQ PUSH2 0xAFB JUMPI PUSH1 0x40 DUP1 MLOAD PUSH1 0xE5 PUSH1 0x2 EXP PUSH3 0x461BCD MUL DUP2 MSTORE PUSH1 0x20 PUSH1 0x4 DUP3 ADD MSTORE PUSH1 0x9 PUSH1 0x24 DUP3 ADD MSTORE PUSH32 0x6F6E6C794F776E65720000000000000000000000000000000000000000000000 PUSH1 0x44 DUP3 ADD MSTORE SWAP1 MLOAD SWAP1 DUP2 SWAP1 SUB PUSH1 0x64 ADD SWAP1 REVERT JUMPDEST PUSH1 0x40 MLOAD PUSH20 0xC25CA3567626A6845103D2CBB5CDCF268FA4D96A SWAP1 ADDRESS BALANCE DUP1 ISZERO PUSH2 0x8FC MUL SWAP2 PUSH1 0x0 DUP2 DUP2 DUP2 DUP6 DUP9 DUP9 CALL SWAP4 POP POP POP POP ISZERO DUP1 ISZERO PUSH2 0xA8D JUMPI RETURNDATASIZE PUSH1 0x0 DUP1 RETURNDATACOPY RETURNDATASIZE PUSH1 0x0 REVERT JUMPDEST PUSH1 0x5 SLOAD PUSH1 0x1 PUSH1 0xA0 PUSH1 0x2 EXP SUB AND DUP2 JUMP JUMPDEST PUSH1 0x1 PUSH1 0xA0 PUSH1 0x2 EXP SUB DUP3 DUP2 AND PUSH1 0x0 SWAP1 DUP2 MSTORE PUSH1 0x1 PUSH1 0x20 DUP2 DUP2 MSTORE PUSH1 0x40 DUP1 DUP5 KECCAK256 PUSH1 0xFF DUP8 DUP2 AND DUP7 MSTORE PUSH1 0x4 SWAP1 SWAP2 ADD DUP4 MSTORE DUP2 DUP6 KECCAK256 DUP1 SLOAD PUSH1 0x3 DUP3 ADD SLOAD PUSH1 0x5 DUP4 ADD SLOAD SWAP7 DUP4 ADD DUP1 SLOAD DUP7 MLOAD DUP2 DUP10 MUL DUP2 ADD DUP10 ADD SWAP1 SWAP8 MSTORE DUP1 DUP8 MSTORE SWAP9 SWAP10 PUSH1 0x60 SWAP10 DUP11 SWAP10 DUP13 SWAP10 DUP11 SWAP10 SWAP7 DUP5 AND SWAP9 SWAP5 SWAP8 PUSH1 0x2 ADD SWAP7 SWAP6 SWAP1 SWAP5 AND SWAP5 SWAP3 AND SWAP3 DUP7 SWAP2 SWAP1 DUP4 ADD DUP3 DUP3 DUP1 ISZERO PUSH2 0xBF1 JUMPI PUSH1 0x20 MUL DUP3 ADD SWAP2 SWAP1 PUSH1 0x0 MSTORE PUSH1 0x20 PUSH1 0x0 KECCAK256 SWAP1 JUMPDEST DUP2 SLOAD PUSH1 0x1 PUSH1 0xA0 PUSH1 0x2 EXP SUB AND DUP2 MSTORE PUSH1 0x1 SWAP1 SWAP2 ADD SWAP1 PUSH1 0x20 ADD DUP1 DUP4 GT PUSH2 0xBD3 JUMPI JUMPDEST POP POP POP POP POP SWAP4 POP DUP3 DUP1 SLOAD DUP1 PUSH1 0x20 MUL PUSH1 0x20 ADD PUSH1 0x40 MLOAD SWAP1 DUP2 ADD PUSH1 0x40 MSTORE DUP1 SWAP3 SWAP2 SWAP1 DUP2 DUP2 MSTORE PUSH1 0x20 ADD DUP3 DUP1 SLOAD DUP1 ISZERO PUSH2 0xC4D JUMPI PUSH1 0x20 MUL DUP3 ADD SWAP2 SWAP1 PUSH1 0x0 MSTORE PUSH1 0x20 PUSH1 0x0 KECCAK256 SWAP1 JUMPDEST DUP2 SLOAD PUSH1 0x1 PUSH1 0xA0 PUSH1 0x2 EXP SUB AND DUP2 MSTORE PUSH1 0x1 SWAP1 SWAP2 ADD SWAP1 PUSH1 0x20 ADD DUP1 DUP4 GT PUSH2 0xC2F JUMPI JUMPDEST POP POP POP POP POP SWAP3 POP SWAP5 POP SWAP5 POP SWAP5 POP SWAP5 POP SWAP5 POP SWAP3 SWAP6 POP SWAP3 SWAP6 SWAP1 SWAP4 POP JUMP JUMPDEST PUSH1 0x1 PUSH1 0x20 DUP2 SWAP1 MSTORE PUSH1 0x0 SWAP2 DUP3 MSTORE PUSH1 0x40 SWAP1 SWAP2 KECCAK256 DUP1 SLOAD SWAP2 DUP2 ADD SLOAD PUSH1 0x2 SWAP1 SWAP2 ADD SLOAD PUSH1 0x1 PUSH1 0xA0 PUSH1 0x2 EXP SUB SWAP1 SWAP2 AND SWAP1 DUP4 JUMP JUMPDEST PUSH20 0xC25CA3567626A6845103D2CBB5CDCF268FA4D96A CALLER EQ PUSH2 0xCFF JUMPI PUSH1 0x40 DUP1 MLOAD PUSH1 0xE5 PUSH1 0x2 EXP PUSH3 0x461BCD MUL DUP2 MSTORE PUSH1 0x20 PUSH1 0x4 DUP3 ADD MSTORE PUSH1 0x9 PUSH1 0x24 DUP3 ADD MSTORE PUSH32 0x6F6E6C794F776E65720000000000000000000000000000000000000000000000 PUSH1 0x44 DUP3 ADD MSTORE SWAP1 MLOAD SWAP1 DUP2 SWAP1 SUB PUSH1 0x64 ADD SWAP1 REVERT JUMPDEST PUSH1 0x7 SLOAD PUSH1 0x1 PUSH1 0xA0 PUSH1 0x2 EXP SUB AND ISZERO PUSH2 0xD15 JUMPI PUSH1 0x0 DUP1 REVERT JUMPDEST PUSH1 0x7 DUP1 SLOAD PUSH1 0x1 PUSH1 0xA0 PUSH1 0x2 EXP SUB NOT AND PUSH1 0x1 PUSH1 0xA0 PUSH1 0x2 EXP SUB SWAP3 SWAP1 SWAP3 AND SWAP2 SWAP1 SWAP2 OR SWAP1 SSTORE JUMP JUMPDEST PUSH2 0xD40 CALLER PUSH2 0xA5D JUMP JUMPDEST ISZERO ISZERO PUSH2 0xDBC JUMPI PUSH1 0x40 DUP1 MLOAD PUSH1 0xE5 PUSH1 0x2 EXP PUSH3 0x461BCD MUL DUP2 MSTORE PUSH1 0x20 PUSH1 0x4 DUP3 ADD MSTORE PUSH1 0x23 PUSH1 0x24 DUP3 ADD MSTORE PUSH32 0x75736572206973206E6F74206578697374732E20526567697374657220666972 PUSH1 0x44 DUP3 ADD MSTORE PUSH32 0x73742E0000000000000000000000000000000000000000000000000000000000 PUSH1 0x64 DUP3 ADD MSTORE SWAP1 MLOAD SWAP1 DUP2 SWAP1 SUB PUSH1 0x84 ADD SWAP1 REVERT JUMPDEST PUSH1 0x1 PUSH1 0xFF DUP4 AND EQ PUSH2 0xE17 JUMPI PUSH1 0x40 DUP1 MLOAD PUSH1 0xE5 PUSH1 0x2 EXP PUSH3 0x461BCD MUL DUP2 MSTORE PUSH1 0x20 PUSH1 0x4 DUP3 ADD MSTORE PUSH1 0xE PUSH1 0x24 DUP3 ADD MSTORE PUSH32 0x696E76616C6964206D6174726978000000000000000000000000000000000000 PUSH1 0x44 DUP3 ADD MSTORE SWAP1 MLOAD SWAP1 DUP2 SWAP1 SUB PUSH1 0x64 ADD SWAP1 REVERT JUMPDEST PUSH1 0xFF DUP2 AND PUSH1 0x0 SWAP1 DUP2 MSTORE PUSH1 0x6 PUSH1 0x20 MSTORE PUSH1 0x40 SWAP1 KECCAK256 SLOAD CALLVALUE EQ PUSH2 0xE80 JUMPI PUSH1 0x40 DUP1 MLOAD PUSH1 0xE5 PUSH1 0x2 EXP PUSH3 0x461BCD MUL DUP2 MSTORE PUSH1 0x20 PUSH1 0x4 DUP3 ADD MSTORE PUSH1 0xD PUSH1 0x24 DUP3 ADD MSTORE PUSH32 0x696E76616C696420707269636500000000000000000000000000000000000000 PUSH1 0x44 DUP3 ADD MSTORE SWAP1 MLOAD SWAP1 DUP2 SWAP1 SUB PUSH1 0x64 ADD SWAP1 REVERT JUMPDEST PUSH1 0x1 DUP2 PUSH1 0xFF AND GT DUP1 ISZERO PUSH2 0xE97 JUMPI POP PUSH1 0xF PUSH1 0xFF DUP3 AND GT ISZERO JUMPDEST ISZERO ISZERO PUSH2 0xEED JUMPI PUSH1 0x40 DUP1 MLOAD PUSH1 0xE5 PUSH1 0x2 EXP PUSH3 0x461BCD MUL DUP2 MSTORE PUSH1 0x20 PUSH1 0x4 DUP3 ADD MSTORE PUSH1 0xD PUSH1 0x24 DUP3 ADD MSTORE PUSH32 0x696E76616C6964206C6576656C00000000000000000000000000000000000000 PUSH1 0x44 DUP3 ADD MSTORE SWAP1 MLOAD SWAP1 DUP2 SWAP1 SUB PUSH1 0x64 ADD SWAP1 REVERT JUMPDEST DUP2 PUSH1 0xFF AND PUSH1 0x1 EQ ISZERO PUSH2 0x110B JUMPI CALLER PUSH1 0x0 SWAP1 DUP2 MSTORE PUSH1 0x1 PUSH1 0x20 SWAP1 DUP2 MSTORE PUSH1 0x40 DUP1 DUP4 KECCAK256 PUSH1 0xFF PUSH1 0x0 NOT DUP7 ADD DUP2 AND DUP6 MSTORE PUSH1 0x3 SWAP1 SWAP2 ADD SWAP1 SWAP3 MSTORE SWAP1 SWAP2 KECCAK256 SLOAD AND ISZERO ISZERO PUSH2 0xF79 JUMPI PUSH1 0x40 DUP1 MLOAD PUSH1 0xE5 PUSH1 0x2 EXP PUSH3 0x461BCD MUL DUP2 MSTORE PUSH1 0x20 PUSH1 0x4 DUP3 ADD MSTORE PUSH1 0x18 PUSH1 0x24 DUP3 ADD MSTORE PUSH32 0x6275792070726576696F7573206C6576656C2066697273740000000000000000 PUSH1 0x44 DUP3 ADD MSTORE SWAP1 MLOAD SWAP1 DUP2 SWAP1 SUB PUSH1 0x64 ADD SWAP1 REVERT JUMPDEST CALLER PUSH1 0x0 SWAP1 DUP2 MSTORE PUSH1 0x1 PUSH1 0x20 SWAP1 DUP2 MSTORE PUSH1 0x40 DUP1 DUP4 KECCAK256 PUSH1 0xFF DUP1 DUP7 AND DUP6 MSTORE PUSH1 0x3 SWAP1 SWAP2 ADD SWAP1 SWAP3 MSTORE SWAP1 SWAP2 KECCAK256 SLOAD AND ISZERO PUSH2 0xFF4 JUMPI PUSH1 0x40 DUP1 MLOAD PUSH1 0xE5 PUSH1 0x2 EXP PUSH3 0x461BCD MUL DUP2 MSTORE PUSH1 0x20 PUSH1 0x4 DUP3 ADD MSTORE PUSH1 0x17 PUSH1 0x24 DUP3 ADD MSTORE PUSH32 0x6C6576656C20616C726561647920616374697661746564000000000000000000 PUSH1 0x44 DUP3 ADD MSTORE SWAP1 MLOAD SWAP1 DUP2 SWAP1 SUB PUSH1 0x64 ADD SWAP1 REVERT JUMPDEST CALLER PUSH1 0x0 SWAP1 DUP2 MSTORE PUSH1 0x1 PUSH1 0x20 SWAP1 DUP2 MSTORE PUSH1 0x40 DUP1 DUP4 KECCAK256 PUSH1 0xFF PUSH1 0x0 NOT DUP7 ADD DUP2 AND DUP6 MSTORE PUSH1 0x4 SWAP1 SWAP2 ADD SWAP1 SWAP3 MSTORE SWAP1 SWAP2 KECCAK256 PUSH1 0x3 ADD SLOAD AND ISZERO PUSH2 0x1056 JUMPI CALLER PUSH1 0x0 SWAP1 DUP2 MSTORE PUSH1 0x1 PUSH1 0x20 SWAP1 DUP2 MSTORE PUSH1 0x40 DUP1 DUP4 KECCAK256 PUSH1 0xFF PUSH1 0x0 NOT DUP7 ADD AND DUP5 MSTORE PUSH1 0x4 ADD SWAP1 SWAP2 MSTORE SWAP1 KECCAK256 PUSH1 0x3 ADD DUP1 SLOAD PUSH1 0xFF NOT AND SWAP1 SSTORE JUMPDEST PUSH1 0x0 PUSH2 0x1062 CALLER DUP4 PUSH2 0x9B3 JUMP JUMPDEST CALLER PUSH1 0x0 DUP2 DUP2 MSTORE PUSH1 0x1 PUSH1 0x20 DUP2 DUP2 MSTORE PUSH1 0x40 DUP1 DUP5 KECCAK256 PUSH1 0xFF DUP10 AND DUP6 MSTORE PUSH1 0x4 DUP2 ADD DUP4 MSTORE DUP2 DUP6 KECCAK256 DUP1 SLOAD PUSH1 0x1 PUSH1 0xA0 PUSH1 0x2 EXP SUB NOT AND PUSH1 0x1 PUSH1 0xA0 PUSH1 0x2 EXP SUB DUP10 AND OR SWAP1 SSTORE PUSH1 0x3 ADD SWAP1 SWAP2 MSTORE SWAP1 SWAP2 KECCAK256 DUP1 SLOAD PUSH1 0xFF NOT AND SWAP1 SWAP2 OR SWAP1 SSTORE SWAP1 SWAP2 POP PUSH2 0x10BE SWAP1 DUP3 DUP5 PUSH2 0x1130 JUMP JUMPDEST PUSH1 0x40 DUP1 MLOAD PUSH1 0x1 DUP2 MSTORE PUSH1 0xFF DUP5 AND PUSH1 0x20 DUP3 ADD MSTORE DUP2 MLOAD PUSH1 0x1 PUSH1 0xA0 PUSH1 0x2 EXP SUB DUP5 AND SWAP3 CALLER SWAP3 PUSH32 0x18A92DF19FD94D6CFFF209966673A5CA05A1C8E2BB68E097FCE2BDC2ED811119 SWAP3 SWAP1 DUP2 SWAP1 SUB SWAP1 SWAP2 ADD SWAP1 LOG3 POP JUMPDEST POP POP JUMP JUMPDEST PUSH1 0x6 PUSH1 0x20 MSTORE PUSH1 0x0 SWAP1 DUP2 MSTORE PUSH1 0x40 SWAP1 KECCAK256 SLOAD DUP2 JUMP JUMPDEST PUSH1 0x7 SLOAD PUSH1 0x1 PUSH1 0xA0 PUSH1 0x2 EXP SUB AND DUP2 JUMP JUMPDEST PUSH1 0x1 PUSH1 0xA0 PUSH1 0x2 EXP SUB DUP3 AND PUSH1 0x0 SWAP1 DUP2 MSTORE PUSH1 0x1 PUSH1 0x20 SWAP1 DUP2 MSTORE PUSH1 0x40 DUP1 DUP4 KECCAK256 PUSH1 0xFF DUP1 DUP7 AND DUP6 MSTORE PUSH1 0x3 SWAP1 SWAP2 ADD SWAP1 SWAP3 MSTORE SWAP1 SWAP2 KECCAK256 SLOAD AND ISZERO ISZERO PUSH2 0x11B5 JUMPI PUSH1 0x40 DUP1 MLOAD PUSH1 0xE5 PUSH1 0x2 EXP PUSH3 0x461BCD MUL DUP2 MSTORE PUSH1 0x20 PUSH1 0x4 DUP3 ADD MSTORE PUSH1 0x1F PUSH1 0x24 DUP3 ADD MSTORE PUSH32 0x3530302E205265666572726572206C6576656C20697320696E61637469766500 PUSH1 0x44 DUP3 ADD MSTORE SWAP1 MLOAD SWAP1 DUP2 SWAP1 SUB PUSH1 0x64 ADD SWAP1 REVERT JUMPDEST PUSH1 0x1 PUSH1 0xA0 PUSH1 0x2 EXP SUB DUP3 AND PUSH1 0x0 SWAP1 DUP2 MSTORE PUSH1 0x1 PUSH1 0x20 DUP2 DUP2 MSTORE PUSH1 0x40 DUP1 DUP5 KECCAK256 PUSH1 0xFF DUP7 AND DUP6 MSTORE PUSH1 0x4 ADD SWAP1 SWAP2 MSTORE SWAP1 SWAP2 KECCAK256 ADD SLOAD PUSH1 0x2 GT ISZERO PUSH2 0x171D JUMPI PUSH1 0x1 PUSH1 0xA0 PUSH1 0x2 EXP SUB DUP3 DUP2 AND PUSH1 0x0 DUP2 DUP2 MSTORE PUSH1 0x1 PUSH1 0x20 DUP2 DUP2 MSTORE PUSH1 0x40 DUP1 DUP5 KECCAK256 PUSH1 0xFF DUP9 DUP2 AND DUP1 DUP8 MSTORE PUSH1 0x4 SWAP1 SWAP3 ADD DUP5 MSTORE DUP3 DUP7 KECCAK256 DUP6 ADD DUP1 SLOAD DUP1 DUP8 ADD DUP3 SSTORE DUP2 DUP9 MSTORE DUP6 DUP9 KECCAK256 ADD DUP1 SLOAD PUSH1 0x1 PUSH1 0xA0 PUSH1 0x2 EXP SUB NOT AND SWAP10 DUP14 AND SWAP10 DUP11 OR SWAP1 SSTORE SWAP6 DUP3 SWAP1 MSTORE SWAP5 SLOAD DUP3 MLOAD SWAP5 DUP6 MSTORE SWAP3 DUP5 ADD MSTORE SWAP3 AND DUP2 DUP4 ADD MSTORE SWAP1 MLOAD SWAP2 SWAP3 SWAP2 PUSH1 0x0 DUP1 MLOAD PUSH1 0x20 PUSH2 0x2767 DUP4 CODECOPY DUP2 MLOAD SWAP2 MSTORE SWAP2 PUSH1 0x60 SWAP1 DUP3 SWAP1 SUB ADD SWAP1 LOG3 PUSH1 0x1 PUSH1 0xA0 PUSH1 0x2 EXP SUB DUP4 DUP2 AND PUSH1 0x0 SWAP1 DUP2 MSTORE PUSH1 0x1 PUSH1 0x20 SWAP1 DUP2 MSTORE PUSH1 0x40 DUP1 DUP4 KECCAK256 PUSH1 0xFF DUP7 AND DUP5 MSTORE PUSH1 0x4 ADD SWAP1 SWAP2 MSTORE SWAP1 KECCAK256 DUP1 SLOAD PUSH1 0x1 PUSH1 0xA0 PUSH1 0x2 EXP SUB NOT AND DUP5 DUP4 AND SWAP1 DUP2 OR SWAP1 SWAP2 SSTORE PUSH1 0x5 SLOAD SWAP1 SWAP2 AND EQ ISZERO PUSH2 0x12CB JUMPI PUSH2 0x12C6 DUP3 DUP5 PUSH1 0x1 DUP5 PUSH2 0x1ADB JUMP JUMPDEST PUSH2 0x1AD6 JUMP JUMPDEST PUSH1 0x1 PUSH1 0xA0 PUSH1 0x2 EXP SUB DUP3 DUP2 AND PUSH1 0x0 SWAP1 DUP2 MSTORE PUSH1 0x1 PUSH1 0x20 DUP2 DUP2 MSTORE PUSH1 0x40 DUP1 DUP5 KECCAK256 PUSH1 0xFF DUP8 AND DUP1 DUP7 MSTORE PUSH1 0x4 SWAP2 DUP3 ADD DUP5 MSTORE DUP3 DUP7 KECCAK256 SLOAD DUP8 AND DUP1 DUP8 MSTORE DUP6 DUP6 MSTORE DUP4 DUP8 KECCAK256 DUP3 DUP9 MSTORE SWAP1 SWAP3 ADD DUP5 MSTORE SWAP2 DUP6 KECCAK256 PUSH1 0x2 DUP1 DUP3 ADD DUP1 SLOAD DUP1 DUP9 ADD DUP3 SSTORE SWAP1 DUP9 MSTORE SWAP5 DUP8 KECCAK256 SWAP1 SWAP5 ADD DUP1 SLOAD PUSH1 0x1 PUSH1 0xA0 PUSH1 0x2 EXP SUB NOT AND SWAP8 DUP12 AND SWAP8 SWAP1 SWAP8 OR SWAP1 SWAP7 SSTORE SWAP4 MSTORE SWAP3 ADD SLOAD SWAP1 SWAP2 DUP2 EQ DUP1 ISZERO PUSH2 0x139D JUMPI POP PUSH1 0x1 PUSH1 0xA0 PUSH1 0x2 EXP SUB DUP3 DUP2 AND PUSH1 0x0 SWAP1 DUP2 MSTORE PUSH1 0x1 PUSH1 0x20 DUP2 DUP2 MSTORE PUSH1 0x40 DUP1 DUP5 KECCAK256 PUSH1 0xFF DUP10 AND DUP6 MSTORE PUSH1 0x4 ADD SWAP1 SWAP2 MSTORE DUP3 KECCAK256 ADD DUP1 SLOAD SWAP3 DUP8 AND SWAP3 SWAP1 SWAP2 SWAP1 DUP2 LT PUSH2 0x1386 JUMPI INVALID JUMPDEST PUSH1 0x0 SWAP2 DUP3 MSTORE PUSH1 0x20 SWAP1 SWAP2 KECCAK256 ADD SLOAD PUSH1 0x1 PUSH1 0xA0 PUSH1 0x2 EXP SUB AND EQ JUMPDEST DUP1 ISZERO PUSH2 0x13F9 JUMPI POP PUSH1 0x1 PUSH1 0xA0 PUSH1 0x2 EXP SUB DUP3 DUP2 AND PUSH1 0x0 SWAP1 DUP2 MSTORE PUSH1 0x1 PUSH1 0x20 DUP2 DUP2 MSTORE PUSH1 0x40 DUP1 DUP5 KECCAK256 PUSH1 0xFF DUP10 AND DUP6 MSTORE PUSH1 0x4 ADD SWAP1 SWAP2 MSTORE SWAP1 SWAP2 KECCAK256 DUP2 ADD DUP1 SLOAD SWAP3 DUP8 AND SWAP3 SWAP1 SWAP2 SWAP1 DUP2 LT PUSH2 0x13E2 JUMPI INVALID JUMPDEST PUSH1 0x0 SWAP2 DUP3 MSTORE PUSH1 0x20 SWAP1 SWAP2 KECCAK256 ADD SLOAD PUSH1 0x1 PUSH1 0xA0 PUSH1 0x2 EXP SUB AND EQ JUMPDEST ISZERO PUSH2 0x14BE JUMPI PUSH1 0x1 PUSH1 0xA0 PUSH1 0x2 EXP SUB DUP5 AND PUSH1 0x0 SWAP1 DUP2 MSTORE PUSH1 0x1 PUSH1 0x20 DUP2 DUP2 MSTORE PUSH1 0x40 DUP1 DUP5 KECCAK256 PUSH1 0xFF DUP9 AND DUP6 MSTORE PUSH1 0x4 ADD SWAP1 SWAP2 MSTORE SWAP1 SWAP2 KECCAK256 DUP2 ADD SLOAD EQ ISZERO PUSH2 0x1477 JUMPI PUSH1 0x40 DUP1 MLOAD PUSH1 0x1 DUP2 MSTORE PUSH1 0xFF DUP6 AND PUSH1 0x20 DUP3 ADD MSTORE PUSH1 0x5 DUP2 DUP4 ADD MSTORE SWAP1 MLOAD PUSH1 0x1 PUSH1 0xA0 PUSH1 0x2 EXP SUB DUP1 DUP6 AND SWAP3 SWAP1 DUP9 AND SWAP2 PUSH1 0x0 DUP1 MLOAD PUSH1 0x20 PUSH2 0x2767 DUP4 CODECOPY DUP2 MLOAD SWAP2 MSTORE SWAP2 DUP2 SWAP1 SUB PUSH1 0x60 ADD SWAP1 LOG3 PUSH2 0x14B9 JUMP JUMPDEST PUSH1 0x40 DUP1 MLOAD PUSH1 0x1 DUP2 MSTORE PUSH1 0xFF DUP6 AND PUSH1 0x20 DUP3 ADD MSTORE PUSH1 0x6 DUP2 DUP4 ADD MSTORE SWAP1 MLOAD PUSH1 0x1 PUSH1 0xA0 PUSH1 0x2 EXP SUB DUP1 DUP6 AND SWAP3 SWAP1 DUP9 AND SWAP2 PUSH1 0x0 DUP1 MLOAD PUSH1 0x20 PUSH2 0x2767 DUP4 CODECOPY DUP2 MLOAD SWAP2 MSTORE SWAP2 DUP2 SWAP1 SUB PUSH1 0x60 ADD SWAP1 LOG3 JUMPDEST PUSH2 0x170B JUMP JUMPDEST DUP1 PUSH1 0x1 EQ DUP1 PUSH2 0x14CD JUMPI POP DUP1 PUSH1 0x2 EQ JUMPDEST DUP1 ISZERO PUSH2 0x1527 JUMPI POP PUSH1 0x1 PUSH1 0xA0 PUSH1 0x2 EXP SUB DUP3 DUP2 AND PUSH1 0x0 SWAP1 DUP2 MSTORE PUSH1 0x1 PUSH1 0x20 DUP2 DUP2 MSTORE PUSH1 0x40 DUP1 DUP5 KECCAK256 PUSH1 0xFF DUP10 AND DUP6 MSTORE PUSH1 0x4 ADD SWAP1 SWAP2 MSTORE DUP3 KECCAK256 ADD DUP1 SLOAD SWAP3 DUP8 AND SWAP3 SWAP1 SWAP2 SWAP1 DUP2 LT PUSH2 0x1510 JUMPI INVALID JUMPDEST PUSH1 0x0 SWAP2 DUP3 MSTORE PUSH1 0x20 SWAP1 SWAP2 KECCAK256 ADD SLOAD PUSH1 0x1 PUSH1 0xA0 PUSH1 0x2 EXP SUB AND EQ JUMPDEST ISZERO PUSH2 0x15EB JUMPI PUSH1 0x1 PUSH1 0xA0 PUSH1 0x2 EXP SUB DUP5 AND PUSH1 0x0 SWAP1 DUP2 MSTORE PUSH1 0x1 PUSH1 0x20 DUP2 DUP2 MSTORE PUSH1 0x40 DUP1 DUP5 KECCAK256 PUSH1 0xFF DUP9 AND DUP6 MSTORE PUSH1 0x4 ADD SWAP1 SWAP2 MSTORE SWAP1 SWAP2 KECCAK256 DUP2 ADD SLOAD EQ ISZERO PUSH2 0x15A5 JUMPI PUSH1 0x40 DUP1 MLOAD PUSH1 0x1 DUP2 MSTORE PUSH1 0xFF DUP6 AND PUSH1 0x20 DUP3 ADD MSTORE PUSH1 0x3 DUP2 DUP4 ADD MSTORE SWAP1 MLOAD PUSH1 0x1 PUSH1 0xA0 PUSH1 0x2 EXP SUB DUP1 DUP6 AND SWAP3 SWAP1 DUP9 AND SWAP2 PUSH1 0x0 DUP1 MLOAD PUSH1 0x20 PUSH2 0x2767 DUP4 CODECOPY DUP2 MLOAD SWAP2 MSTORE SWAP2 DUP2 SWAP1 SUB PUSH1 0x60 ADD SWAP1 LOG3 PUSH2 0x14B9 JUMP JUMPDEST PUSH1 0x40 DUP1 MLOAD PUSH1 0x1 DUP2 MSTORE PUSH1 0xFF DUP6 AND PUSH1 0x20 DUP3 ADD MSTORE PUSH1 0x4 DUP2 DUP4 ADD MSTORE SWAP1 MLOAD PUSH1 0x1 PUSH1 0xA0 PUSH1 0x2 EXP SUB DUP1 DUP6 AND SWAP3 SWAP1 DUP9 AND SWAP2 PUSH1 0x0 DUP1 MLOAD PUSH1 0x20 PUSH2 0x2767 DUP4 CODECOPY DUP2 MLOAD SWAP2 MSTORE SWAP2 DUP2 SWAP1 SUB PUSH1 0x60 ADD SWAP1 LOG3 PUSH2 0x170B JUMP JUMPDEST DUP1 PUSH1 0x2 EQ DUP1 ISZERO PUSH2 0x164B JUMPI POP PUSH1 0x1 PUSH1 0xA0 PUSH1 0x2 EXP SUB DUP3 DUP2 AND PUSH1 0x0 SWAP1 DUP2 MSTORE PUSH1 0x1 PUSH1 0x20 DUP2 DUP2 MSTORE PUSH1 0x40 DUP1 DUP5 KECCAK256 PUSH1 0xFF DUP10 AND DUP6 MSTORE PUSH1 0x4 ADD SWAP1 SWAP2 MSTORE SWAP1 SWAP2 KECCAK256 DUP2 ADD DUP1 SLOAD SWAP3 DUP8 AND SWAP3 SWAP1 SWAP2 SWAP1 DUP2 LT PUSH2 0x1634 JUMPI INVALID JUMPDEST PUSH1 0x0 SWAP2 DUP3 MSTORE PUSH1 0x20 SWAP1 SWAP2 KECCAK256 ADD SLOAD PUSH1 0x1 PUSH1 0xA0 PUSH1 0x2 EXP SUB AND EQ JUMPDEST ISZERO PUSH2 0x170B JUMPI PUSH1 0x1 PUSH1 0xA0 PUSH1 0x2 EXP SUB DUP5 AND PUSH1 0x0 SWAP1 DUP2 MSTORE PUSH1 0x1 PUSH1 0x20 DUP2 DUP2 MSTORE PUSH1 0x40 DUP1 DUP5 KECCAK256 PUSH1 0xFF DUP9 AND DUP6 MSTORE PUSH1 0x4 ADD SWAP1 SWAP2 MSTORE SWAP1 SWAP2 KECCAK256 DUP2 ADD SLOAD EQ ISZERO PUSH2 0x16C9 JUMPI PUSH1 0x40 DUP1 MLOAD PUSH1 0x1 DUP2 MSTORE PUSH1 0xFF DUP6 AND PUSH1 0x20 DUP3 ADD MSTORE PUSH1 0x5 DUP2 DUP4 ADD MSTORE SWAP1 MLOAD PUSH1 0x1 PUSH1 0xA0 PUSH1 0x2 EXP SUB DUP1 DUP6 AND SWAP3 SWAP1 DUP9 AND SWAP2 PUSH1 0x0 DUP1 MLOAD PUSH1 0x20 PUSH2 0x2767 DUP4 CODECOPY DUP2 MLOAD SWAP2 MSTORE SWAP2 DUP2 SWAP1 SUB PUSH1 0x60 ADD SWAP1 LOG3 PUSH2 0x170B JUMP JUMPDEST PUSH1 0x40 DUP1 MLOAD PUSH1 0x1 DUP2 MSTORE PUSH1 0xFF DUP6 AND PUSH1 0x20 DUP3 ADD MSTORE PUSH1 0x6 DUP2 DUP4 ADD MSTORE SWAP1 MLOAD PUSH1 0x1 PUSH1 0xA0 PUSH1 0x2 EXP SUB DUP1 DUP6 AND SWAP3 SWAP1 DUP9 AND SWAP2 PUSH1 0x0 DUP1 MLOAD PUSH1 0x20 PUSH2 0x2767 DUP4 CODECOPY DUP2 MLOAD SWAP2 MSTORE SWAP2 DUP2 SWAP1 SUB PUSH1 0x60 ADD SWAP1 LOG3 JUMPDEST PUSH2 0x1716 DUP6 DUP4 DUP6 PUSH2 0x1BC8 JUMP JUMPDEST POP POP PUSH2 0x1AD6 JUMP JUMPDEST PUSH1 0x1 PUSH1 0xA0 PUSH1 0x2 EXP SUB DUP3 DUP2 AND PUSH1 0x0 SWAP1 DUP2 MSTORE PUSH1 0x1 PUSH1 0x20 DUP2 DUP2 MSTORE PUSH1 0x40 DUP1 DUP5 KECCAK256 PUSH1 0xFF DUP8 AND DUP1 DUP7 MSTORE PUSH1 0x4 SWAP1 SWAP2 ADD DUP4 MSTORE SWAP1 DUP5 KECCAK256 PUSH1 0x2 DUP2 ADD DUP1 SLOAD SWAP5 DUP6 ADD DUP2 SSTORE DUP6 MSTORE SWAP2 DUP5 KECCAK256 SWAP1 SWAP3 ADD DUP1 SLOAD PUSH1 0x1 PUSH1 0xA0 PUSH1 0x2 EXP SUB NOT AND DUP9 DUP7 AND OR SWAP1 SSTORE SWAP2 MSTORE PUSH1 0x5 ADD SLOAD AND ISZERO PUSH2 0x1906 JUMPI PUSH1 0x1 PUSH1 0xA0 PUSH1 0x2 EXP SUB DUP3 AND PUSH1 0x0 SWAP1 DUP2 MSTORE PUSH1 0x1 PUSH1 0x20 DUP2 DUP2 MSTORE PUSH1 0x40 DUP1 DUP5 KECCAK256 PUSH1 0xFF DUP7 AND DUP6 MSTORE PUSH1 0x4 ADD SWAP1 SWAP2 MSTORE SWAP1 SWAP2 KECCAK256 DUP2 ADD DUP1 SLOAD SWAP1 SWAP2 SWAP1 DUP2 LT PUSH2 0x17B4 JUMPI INVALID JUMPDEST PUSH1 0x0 SWAP2 DUP3 MSTORE PUSH1 0x20 DUP1 DUP4 KECCAK256 SWAP1 SWAP2 ADD SLOAD PUSH1 0x1 PUSH1 0xA0 PUSH1 0x2 EXP SUB DUP6 DUP2 AND DUP5 MSTORE PUSH1 0x1 DUP1 DUP5 MSTORE PUSH1 0x40 DUP1 DUP7 KECCAK256 PUSH1 0xFF DUP9 AND DUP8 MSTORE PUSH1 0x4 ADD SWAP1 SWAP5 MSTORE SWAP3 DUP5 KECCAK256 SWAP1 SWAP3 ADD DUP1 SLOAD SWAP3 SWAP1 SWAP2 AND SWAP3 SWAP1 SWAP2 DUP2 LT PUSH2 0x17FC JUMPI INVALID JUMPDEST PUSH1 0x0 SWAP2 DUP3 MSTORE PUSH1 0x20 SWAP1 SWAP2 KECCAK256 ADD SLOAD PUSH1 0x1 PUSH1 0xA0 PUSH1 0x2 EXP SUB AND EQ DUP1 ISZERO PUSH2 0x1872 JUMPI POP PUSH1 0x1 PUSH1 0xA0 PUSH1 0x2 EXP SUB DUP3 DUP2 AND PUSH1 0x0 SWAP1 DUP2 MSTORE PUSH1 0x1 PUSH1 0x20 DUP2 DUP2 MSTORE PUSH1 0x40 DUP1 DUP5 KECCAK256 PUSH1 0xFF DUP8 AND DUP6 MSTORE PUSH1 0x4 ADD SWAP1 SWAP2 MSTORE DUP3 KECCAK256 PUSH1 0x5 DUP2 ADD SLOAD SWAP2 ADD DUP1 SLOAD SWAP2 SWAP1 SWAP4 AND SWAP3 SWAP2 SWAP1 DUP2 LT PUSH2 0x185B JUMPI INVALID JUMPDEST PUSH1 0x0 SWAP2 DUP3 MSTORE PUSH1 0x20 SWAP1 SWAP2 KECCAK256 ADD SLOAD PUSH1 0x1 PUSH1 0xA0 PUSH1 0x2 EXP SUB AND EQ JUMPDEST ISZERO PUSH2 0x188F JUMPI PUSH2 0x1884 DUP4 DUP4 DUP4 PUSH1 0x1 PUSH2 0x205B JUMP JUMPDEST PUSH2 0x12C6 DUP4 DUP4 DUP4 PUSH2 0x1BC8 JUMP JUMPDEST PUSH1 0x1 PUSH1 0xA0 PUSH1 0x2 EXP SUB DUP3 DUP2 AND PUSH1 0x0 SWAP1 DUP2 MSTORE PUSH1 0x1 PUSH1 0x20 DUP2 DUP2 MSTORE PUSH1 0x40 DUP1 DUP5 KECCAK256 PUSH1 0xFF DUP8 AND DUP6 MSTORE PUSH1 0x4 ADD SWAP1 SWAP2 MSTORE DUP3 KECCAK256 PUSH1 0x5 DUP2 ADD SLOAD SWAP2 ADD DUP1 SLOAD SWAP2 SWAP1 SWAP4 AND SWAP3 SWAP2 SWAP1 DUP2 LT PUSH2 0x18D1 JUMPI INVALID JUMPDEST PUSH1 0x0 SWAP2 DUP3 MSTORE PUSH1 0x20 SWAP1 SWAP2 KECCAK256 ADD SLOAD PUSH1 0x1 PUSH1 0xA0 PUSH1 0x2 EXP SUB AND EQ ISZERO PUSH2 0x18F9 JUMPI PUSH2 0x1884 DUP4 DUP4 DUP4 PUSH1 0x1 PUSH2 0x205B JUMP JUMPDEST PUSH2 0x1884 DUP4 DUP4 DUP4 PUSH1 0x0 PUSH2 0x205B JUMP JUMPDEST PUSH1 0x1 PUSH1 0xA0 PUSH1 0x2 EXP SUB DUP3 DUP2 AND PUSH1 0x0 SWAP1 DUP2 MSTORE PUSH1 0x1 PUSH1 0x20 DUP2 DUP2 MSTORE PUSH1 0x40 DUP1 DUP5 KECCAK256 PUSH1 0xFF DUP8 AND DUP6 MSTORE PUSH1 0x4 ADD SWAP1 SWAP2 MSTORE SWAP1 SWAP2 KECCAK256 DUP2 ADD DUP1 SLOAD SWAP3 DUP7 AND SWAP3 SWAP1 SWAP2 SWAP1 DUP2 LT PUSH2 0x1944 JUMPI INVALID JUMPDEST PUSH1 0x0 SWAP2 DUP3 MSTORE PUSH1 0x20 SWAP1 SWAP2 KECCAK256 ADD SLOAD PUSH1 0x1 PUSH1 0xA0 PUSH1 0x2 EXP SUB AND EQ ISZERO PUSH2 0x196C JUMPI PUSH2 0x1884 DUP4 DUP4 DUP4 PUSH1 0x0 PUSH2 0x205B JUMP JUMPDEST PUSH1 0x1 PUSH1 0xA0 PUSH1 0x2 EXP SUB DUP3 DUP2 AND PUSH1 0x0 SWAP1 DUP2 MSTORE PUSH1 0x1 PUSH1 0x20 DUP2 DUP2 MSTORE PUSH1 0x40 DUP1 DUP5 KECCAK256 PUSH1 0xFF DUP8 AND DUP6 MSTORE PUSH1 0x4 ADD SWAP1 SWAP2 MSTORE DUP3 KECCAK256 ADD DUP1 SLOAD SWAP3 DUP7 AND SWAP3 SWAP1 SWAP2 SWAP1 DUP2 LT PUSH2 0x19A8 JUMPI INVALID JUMPDEST PUSH1 0x0 SWAP2 DUP3 MSTORE PUSH1 0x20 SWAP1 SWAP2 KECCAK256 ADD SLOAD PUSH1 0x1 PUSH1 0xA0 PUSH1 0x2 EXP SUB AND EQ ISZERO PUSH2 0x19D0 JUMPI PUSH2 0x1884 DUP4 DUP4 DUP4 PUSH1 0x1 PUSH2 0x205B JUMP JUMPDEST PUSH1 0x1 PUSH1 0xA0 PUSH1 0x2 EXP SUB DUP3 AND PUSH1 0x0 SWAP1 DUP2 MSTORE PUSH1 0x1 PUSH1 0x20 DUP2 DUP2 MSTORE PUSH1 0x40 DUP1 DUP5 KECCAK256 PUSH1 0xFF DUP7 AND DUP6 MSTORE PUSH1 0x4 ADD SWAP1 SWAP2 MSTORE DUP3 KECCAK256 DUP2 ADD DUP1 SLOAD SWAP2 SWAP3 SWAP2 DUP4 SWAP1 DUP2 LT PUSH2 0x1A0A JUMPI INVALID JUMPDEST PUSH1 0x0 SWAP2 DUP3 MSTORE PUSH1 0x20 DUP1 DUP4 KECCAK256 SWAP1 SWAP2 ADD SLOAD PUSH1 0x1 PUSH1 0xA0 PUSH1 0x2 EXP SUB SWAP1 DUP2 AND DUP5 MSTORE DUP4 DUP3 ADD SWAP5 SWAP1 SWAP5 MSTORE PUSH1 0x40 SWAP3 DUP4 ADD DUP3 KECCAK256 PUSH1 0xFF DUP7 AND DUP1 DUP5 MSTORE PUSH1 0x4 SWAP2 DUP3 ADD DUP4 MSTORE DUP5 DUP5 KECCAK256 PUSH1 0x1 SWAP1 DUP2 ADD SLOAD SWAP7 DUP10 AND DUP6 MSTORE DUP1 DUP5 MSTORE DUP6 DUP6 KECCAK256 SWAP2 DUP6 MSTORE SWAP2 ADD SWAP1 SWAP2 MSTORE SWAP2 DUP2 KECCAK256 DUP3 ADD DUP1 SLOAD DUP3 SWAP1 DUP2 LT PUSH2 0x1A6E JUMPI INVALID JUMPDEST PUSH1 0x0 SWAP2 DUP3 MSTORE PUSH1 0x20 DUP1 DUP4 KECCAK256 SWAP1 SWAP2 ADD SLOAD PUSH1 0x1 PUSH1 0xA0 PUSH1 0x2 EXP SUB AND DUP4 MSTORE DUP3 DUP2 ADD SWAP4 SWAP1 SWAP4 MSTORE PUSH1 0x40 SWAP2 DUP3 ADD DUP2 KECCAK256 PUSH1 0xFF DUP7 AND DUP3 MSTORE PUSH1 0x4 ADD SWAP1 SWAP3 MSTORE SWAP1 KECCAK256 PUSH1 0x1 ADD SLOAD GT PUSH2 0x1ABE JUMPI PUSH2 0x1AB9 DUP4 DUP4 DUP4 PUSH1 0x0 PUSH2 0x205B JUMP JUMPDEST PUSH2 0x1ACB JUMP JUMPDEST PUSH2 0x1ACB DUP4 DUP4 DUP4 PUSH1 0x1 PUSH2 0x205B JUMP JUMPDEST PUSH2 0x1AD6 DUP4 DUP4 DUP4 PUSH2 0x1BC8 JUMP JUMPDEST POP POP POP JUMP JUMPDEST PUSH1 0x0 DUP1 PUSH2 0x1AEA DUP7 DUP7 DUP7 DUP7 PUSH2 0x25C7 JUMP JUMPDEST PUSH1 0x40 MLOAD SWAP2 SWAP4 POP SWAP2 POP PUSH1 0x1 PUSH1 0xA0 PUSH1 0x2 EXP SUB DUP4 AND SWAP1 ADDRESS BALANCE DUP1 ISZERO PUSH2 0x8FC MUL SWAP2 PUSH1 0x0 DUP2 DUP2 DUP2 DUP6 DUP9 DUP9 CALL SWAP4 POP POP POP POP ISZERO ISZERO PUSH2 0x1B6A JUMPI PUSH1 0x40 DUP1 MLOAD PUSH1 0xE5 PUSH1 0x2 EXP PUSH3 0x461BCD MUL DUP2 MSTORE PUSH1 0x20 PUSH1 0x4 DUP3 ADD MSTORE PUSH1 0x14 PUSH1 0x24 DUP3 ADD MSTORE PUSH32 0x4661696C656420746F2073656E64204574686572000000000000000000000000 PUSH1 0x44 DUP3 ADD MSTORE SWAP1 MLOAD SWAP1 DUP2 SWAP1 SUB PUSH1 0x64 ADD SWAP1 REVERT JUMPDEST DUP1 ISZERO PUSH2 0x1BC0 JUMPI PUSH1 0x40 DUP1 MLOAD PUSH1 0xFF DUP1 DUP8 AND DUP3 MSTORE DUP6 AND PUSH1 0x20 DUP3 ADD MSTORE DUP2 MLOAD PUSH1 0x1 PUSH1 0xA0 PUSH1 0x2 EXP SUB DUP1 DUP7 AND SWAP4 SWAP1 DUP10 AND SWAP3 PUSH32 0xF0DDC65C0D411F042F723DCFA1B7D13E85A35B7B70761D447C6500411CACF328 SWAP3 SWAP1 DUP2 SWAP1 SUB SWAP1 SWAP2 ADD SWAP1 LOG3 JUMPDEST POP POP POP POP POP POP JUMP JUMPDEST PUSH1 0x1 PUSH1 0xA0 PUSH1 0x2 EXP SUB DUP3 AND PUSH1 0x0 SWAP1 DUP2 MSTORE PUSH1 0x1 PUSH1 0x20 SWAP1 DUP2 MSTORE PUSH1 0x40 DUP1 DUP4 KECCAK256 PUSH1 0xFF DUP6 AND DUP5 MSTORE PUSH1 0x4 SWAP1 DUP2 ADD SWAP1 SWAP3 MSTORE SWAP1 SWAP2 KECCAK256 PUSH1 0x2 ADD SLOAD LT ISZERO PUSH2 0x1C0B JUMPI PUSH2 0x12C6 DUP3 DUP5 PUSH1 0x1 DUP5 PUSH2 0x1ADB JUMP JUMPDEST PUSH1 0x1 PUSH1 0xA0 PUSH1 0x2 EXP SUB DUP1 DUP4 AND PUSH1 0x0 SWAP1 DUP2 MSTORE PUSH1 0x1 PUSH1 0x20 DUP2 DUP2 MSTORE PUSH1 0x40 DUP1 DUP5 KECCAK256 PUSH1 0xFF DUP8 AND DUP1 DUP7 MSTORE PUSH1 0x4 SWAP2 DUP3 ADD DUP5 MSTORE DUP3 DUP7 KECCAK256 SLOAD SWAP1 SWAP7 AND DUP6 MSTORE DUP4 DUP4 MSTORE DUP2 DUP6 KECCAK256 SWAP6 DUP6 MSTORE SWAP5 SWAP1 SWAP5 ADD DUP2 MSTORE SWAP2 DUP4 SWAP1 KECCAK256 ADD DUP1 SLOAD DUP4 MLOAD DUP2 DUP5 MUL DUP2 ADD DUP5 ADD SWAP1 SWAP5 MSTORE DUP1 DUP5 MSTORE PUSH1 0x60 SWAP4 SWAP3 DUP4 ADD DUP3 DUP3 DUP1 ISZERO PUSH2 0x1CA0 JUMPI PUSH1 0x20 MUL DUP3 ADD SWAP2 SWAP1 PUSH1 0x0 MSTORE PUSH1 0x20 PUSH1 0x0 KECCAK256 SWAP1 JUMPDEST DUP2 SLOAD PUSH1 0x1 PUSH1 0xA0 PUSH1 0x2 EXP SUB AND DUP2 MSTORE PUSH1 0x1 SWAP1 SWAP2 ADD SWAP1 PUSH1 0x20 ADD DUP1 DUP4 GT PUSH2 0x1C82 JUMPI JUMPDEST POP POP POP POP POP SWAP1 POP DUP1 MLOAD PUSH1 0x2 EQ ISZERO PUSH2 0x1E0D JUMPI DUP3 PUSH1 0x1 PUSH1 0xA0 PUSH1 0x2 EXP SUB AND DUP2 PUSH1 0x0 DUP2 MLOAD DUP2 LT ISZERO ISZERO PUSH2 0x1CCA JUMPI INVALID JUMPDEST SWAP1 PUSH1 0x20 ADD SWAP1 PUSH1 0x20 MUL ADD MLOAD PUSH1 0x1 PUSH1 0xA0 PUSH1 0x2 EXP SUB AND EQ DUP1 PUSH2 0x1D12 JUMPI POP DUP3 PUSH1 0x1 PUSH1 0xA0 PUSH1 0x2 EXP SUB AND DUP2 PUSH1 0x1 DUP2 MLOAD DUP2 LT ISZERO ISZERO PUSH2 0x1CFD JUMPI INVALID JUMPDEST SWAP1 PUSH1 0x20 ADD SWAP1 PUSH1 0x20 MUL ADD MLOAD PUSH1 0x1 PUSH1 0xA0 PUSH1 0x2 EXP SUB AND EQ JUMPDEST ISZERO PUSH2 0x1D76 JUMPI PUSH1 0x1 PUSH1 0xA0 PUSH1 0x2 EXP SUB DUP1 DUP5 AND PUSH1 0x0 DUP2 DUP2 MSTORE PUSH1 0x1 PUSH1 0x20 DUP2 DUP2 MSTORE PUSH1 0x40 DUP1 DUP5 KECCAK256 PUSH1 0xFF DUP10 AND DUP1 DUP7 MSTORE PUSH1 0x4 SWAP2 DUP3 ADD DUP5 MSTORE DUP3 DUP7 KECCAK256 SLOAD SWAP1 SWAP8 AND DUP6 MSTORE SWAP3 DUP3 MSTORE DUP1 DUP5 KECCAK256 SWAP6 DUP5 MSTORE SWAP5 SWAP1 SWAP2 ADD SWAP1 MSTORE SWAP2 SWAP1 SWAP2 KECCAK256 PUSH1 0x5 ADD DUP1 SLOAD PUSH1 0x1 PUSH1 0xA0 PUSH1 0x2 EXP SUB NOT AND SWAP1 SWAP2 OR SWAP1 SSTORE PUSH2 0x1E0D JUMP JUMPDEST DUP1 MLOAD PUSH1 0x1 EQ ISZERO PUSH2 0x1E0D JUMPI DUP3 PUSH1 0x1 PUSH1 0xA0 PUSH1 0x2 EXP SUB AND DUP2 PUSH1 0x0 DUP2 MLOAD DUP2 LT ISZERO ISZERO PUSH2 0x1D99 JUMPI INVALID JUMPDEST SWAP1 PUSH1 0x20 ADD SWAP1 PUSH1 0x20 MUL ADD MLOAD PUSH1 0x1 PUSH1 0xA0 PUSH1 0x2 EXP SUB AND EQ ISZERO PUSH2 0x1E0D JUMPI PUSH1 0x1 PUSH1 0xA0 PUSH1 0x2 EXP SUB DUP1 DUP5 AND PUSH1 0x0 DUP2 DUP2 MSTORE PUSH1 0x1 PUSH1 0x20 DUP2 DUP2 MSTORE PUSH1 0x40 DUP1 DUP5 KECCAK256 PUSH1 0xFF DUP10 AND DUP1 DUP7 MSTORE PUSH1 0x4 SWAP2 DUP3 ADD DUP5 MSTORE DUP3 DUP7 KECCAK256 SLOAD SWAP1 SWAP8 AND DUP6 MSTORE SWAP3 DUP3 MSTORE DUP1 DUP5 KECCAK256 SWAP6 DUP5 MSTORE SWAP5 SWAP1 SWAP2 ADD SWAP1 MSTORE SWAP2 SWAP1 SWAP2 KECCAK256 PUSH1 0x5 ADD DUP1 SLOAD PUSH1 0x1 PUSH1 0xA0 PUSH1 0x2 EXP SUB NOT AND SWAP1 SWAP2 OR SWAP1 SSTORE JUMPDEST PUSH1 0x40 DUP1 MLOAD PUSH1 0x0 DUP1 DUP3 MSTORE PUSH1 0x20 DUP1 DUP4 ADD DUP1 DUP6 MSTORE PUSH1 0x1 PUSH1 0xA0 PUSH1 0x2 EXP SUB DUP9 AND DUP4 MSTORE PUSH1 0x1 DUP1 DUP4 MSTORE DUP6 DUP5 KECCAK256 PUSH1 0xFF DUP10 AND DUP6 MSTORE PUSH1 0x4 ADD SWAP1 SWAP3 MSTORE SWAP4 SWAP1 SWAP2 KECCAK256 SWAP2 MLOAD PUSH2 0x1E53 SWAP4 SWAP3 SWAP1 SWAP2 ADD SWAP2 SWAP1 PUSH2 0x26DA JUMP JUMPDEST POP PUSH1 0x40 DUP1 MLOAD PUSH1 0x0 DUP1 DUP3 MSTORE PUSH1 0x20 DUP1 DUP4 ADD DUP1 DUP6 MSTORE PUSH1 0x1 PUSH1 0xA0 PUSH1 0x2 EXP SUB DUP9 AND DUP4 MSTORE PUSH1 0x1 DUP3 MSTORE DUP5 DUP4 KECCAK256 PUSH1 0xFF DUP9 AND DUP5 MSTORE PUSH1 0x4 ADD SWAP1 SWAP2 MSTORE SWAP3 SWAP1 KECCAK256 SWAP1 MLOAD PUSH2 0x1E99 SWAP3 PUSH1 0x2 SWAP1 SWAP3 ADD SWAP2 SWAP1 PUSH2 0x26DA JUMP JUMPDEST POP PUSH1 0x1 PUSH1 0xA0 PUSH1 0x2 EXP SUB DUP4 AND PUSH1 0x0 SWAP1 DUP2 MSTORE PUSH1 0x1 PUSH1 0x20 DUP2 DUP2 MSTORE PUSH1 0x40 DUP1 DUP5 KECCAK256 PUSH1 0xFF DUP1 DUP9 AND DUP7 MSTORE PUSH1 0x4 DUP3 ADD DUP5 MSTORE DUP3 DUP7 KECCAK256 PUSH1 0x5 ADD DUP1 SLOAD PUSH1 0x1 PUSH1 0xA0 PUSH1 0x2 EXP SUB NOT AND SWAP1 SSTORE SWAP4 DUP8 ADD DUP5 AND DUP6 MSTORE PUSH1 0x3 ADD SWAP1 SWAP2 MSTORE SWAP1 SWAP2 KECCAK256 SLOAD AND ISZERO DUP1 ISZERO PUSH2 0x1EF9 JUMPI POP PUSH1 0xFF DUP3 AND PUSH1 0xF EQ ISZERO JUMPDEST ISZERO PUSH2 0x1F37 JUMPI PUSH1 0x1 PUSH1 0xA0 PUSH1 0x2 EXP SUB DUP4 AND PUSH1 0x0 SWAP1 DUP2 MSTORE PUSH1 0x1 PUSH1 0x20 DUP2 DUP2 MSTORE PUSH1 0x40 DUP1 DUP5 KECCAK256 PUSH1 0xFF DUP8 AND DUP6 MSTORE PUSH1 0x4 ADD SWAP1 SWAP2 MSTORE SWAP1 SWAP2 KECCAK256 PUSH1 0x3 ADD DUP1 SLOAD PUSH1 0xFF NOT AND SWAP1 SWAP2 OR SWAP1 SSTORE JUMPDEST PUSH1 0x1 PUSH1 0xA0 PUSH1 0x2 EXP SUB DUP1 DUP5 AND PUSH1 0x0 DUP2 DUP2 MSTORE PUSH1 0x1 PUSH1 0x20 DUP2 DUP2 MSTORE PUSH1 0x40 DUP1 DUP5 KECCAK256 PUSH1 0xFF DUP10 AND DUP6 MSTORE PUSH1 0x4 SWAP1 DUP2 ADD SWAP1 SWAP3 MSTORE SWAP1 SWAP3 KECCAK256 SWAP1 SWAP2 ADD DUP1 SLOAD SWAP1 SWAP2 ADD SWAP1 SSTORE PUSH1 0x5 SLOAD SWAP1 SWAP2 AND EQ PUSH2 0x1FE9 JUMPI PUSH1 0x0 PUSH2 0x1F85 DUP5 DUP5 PUSH2 0x9B3 JUMP JUMPDEST PUSH1 0x40 DUP1 MLOAD PUSH1 0x1 DUP2 MSTORE PUSH1 0xFF DUP7 AND PUSH1 0x20 DUP3 ADD MSTORE DUP2 MLOAD SWAP3 SWAP4 POP PUSH1 0x1 PUSH1 0xA0 PUSH1 0x2 EXP SUB DUP1 DUP10 AND SWAP4 DUP2 DUP7 AND SWAP4 SWAP2 DUP10 AND SWAP3 PUSH32 0xA00C953EFF38EC1B71E7FE060B2AB8DF0BBE5354319FBDDE4FBDAFD6324386A6 SWAP3 SWAP1 DUP3 SWAP1 SUB ADD SWAP1 LOG4 PUSH2 0x1FE3 DUP5 DUP3 DUP6 PUSH2 0x1130 JUMP JUMPDEST POP PUSH2 0x2055 JUMP JUMPDEST PUSH1 0x5 SLOAD PUSH1 0x40 DUP1 MLOAD PUSH1 0x1 DUP2 MSTORE PUSH1 0xFF DUP6 AND PUSH1 0x20 DUP3 ADD MSTORE DUP2 MLOAD PUSH1 0x1 PUSH1 0xA0 PUSH1 0x2 EXP SUB DUP1 DUP10 AND SWAP5 PUSH1 0x0 SWAP5 SWAP2 AND SWAP3 PUSH32 0xA00C953EFF38EC1B71E7FE060B2AB8DF0BBE5354319FBDDE4FBDAFD6324386A6 SWAP3 SWAP1 DUP2 SWAP1 SUB SWAP1 SWAP2 ADD SWAP1 LOG4 PUSH1 0x5 SLOAD PUSH2 0x2055 SWAP1 PUSH1 0x1 PUSH1 0xA0 PUSH1 0x2 EXP SUB AND DUP6 PUSH1 0x1 DUP6 PUSH2 0x1ADB JUMP JUMPDEST POP POP POP POP JUMP JUMPDEST DUP1 ISZERO ISZERO PUSH2 0x2314 JUMPI PUSH1 0x1 PUSH1 0xA0 PUSH1 0x2 EXP SUB DUP4 AND PUSH1 0x0 SWAP1 DUP2 MSTORE PUSH1 0x1 PUSH1 0x20 DUP2 DUP2 MSTORE PUSH1 0x40 DUP1 DUP5 KECCAK256 PUSH1 0xFF DUP8 AND DUP6 MSTORE PUSH1 0x4 ADD SWAP1 SWAP2 MSTORE DUP3 KECCAK256 DUP2 ADD DUP1 SLOAD SWAP2 SWAP3 SWAP2 DUP3 SWAP1 DUP2 LT PUSH2 0x209C JUMPI INVALID JUMPDEST PUSH1 0x0 SWAP2 DUP3 MSTORE PUSH1 0x20 DUP1 DUP4 KECCAK256 SWAP2 SWAP1 SWAP2 ADD SLOAD PUSH1 0x1 PUSH1 0xA0 PUSH1 0x2 EXP SUB SWAP1 DUP2 AND DUP5 MSTORE DUP4 DUP3 ADD SWAP5 SWAP1 SWAP5 MSTORE PUSH1 0x40 SWAP3 DUP4 ADD DUP3 KECCAK256 PUSH1 0xFF DUP8 AND DUP1 DUP5 MSTORE PUSH1 0x4 SWAP2 DUP3 ADD DUP4 MSTORE DUP5 DUP5 KECCAK256 PUSH1 0x1 SWAP1 DUP2 ADD DUP1 SLOAD DUP1 DUP4 ADD DUP3 SSTORE SWAP1 DUP7 MSTORE DUP5 DUP7 KECCAK256 ADD DUP1 SLOAD PUSH1 0x1 PUSH1 0xA0 PUSH1 0x2 EXP SUB NOT AND DUP13 DUP10 AND OR SWAP1 SSTORE SWAP6 DUP10 AND DUP5 MSTORE DUP6 DUP4 MSTORE DUP5 DUP5 KECCAK256 SWAP1 DUP5 MSTORE ADD SWAP1 MSTORE SWAP1 DUP2 KECCAK256 SWAP1 SWAP2 ADD DUP1 SLOAD SWAP1 SWAP2 SWAP1 DUP2 LT PUSH2 0x2120 JUMPI INVALID JUMPDEST PUSH1 0x0 SWAP2 DUP3 MSTORE PUSH1 0x20 DUP1 DUP4 KECCAK256 SWAP1 SWAP2 ADD SLOAD PUSH1 0x1 PUSH1 0xA0 PUSH1 0x2 EXP SUB DUP7 DUP2 AND DUP5 MSTORE PUSH1 0x1 DUP1 DUP5 MSTORE PUSH1 0x40 DUP1 DUP7 KECCAK256 PUSH1 0xFF DUP10 AND DUP8 MSTORE PUSH1 0x4 ADD SWAP1 SWAP5 MSTORE SWAP3 DUP5 KECCAK256 DUP4 ADD DUP1 SLOAD SWAP3 DUP3 AND SWAP5 SWAP2 DUP10 AND SWAP4 PUSH1 0x0 DUP1 MLOAD PUSH1 0x20 PUSH2 0x2767 DUP4 CODECOPY DUP2 MLOAD SWAP2 MSTORE SWAP4 SWAP1 SWAP3 DUP9 SWAP3 DUP5 SWAP3 DUP3 SWAP1 DUP2 LT PUSH2 0x2180 JUMPI INVALID JUMPDEST PUSH1 0x0 SWAP2 DUP3 MSTORE PUSH1 0x20 DUP1 DUP4 KECCAK256 SWAP1 SWAP2 ADD SLOAD PUSH1 0x1 PUSH1 0xA0 PUSH1 0x2 EXP SUB AND DUP4 MSTORE DUP3 DUP2 ADD SWAP4 SWAP1 SWAP4 MSTORE PUSH1 0x40 SWAP2 DUP3 ADD DUP2 KECCAK256 PUSH1 0xFF DUP1 DUP13 AND DUP4 MSTORE PUSH1 0x4 SWAP1 SWAP2 ADD DUP5 MSTORE SWAP1 DUP3 SWAP1 KECCAK256 PUSH1 0x1 ADD SLOAD DUP3 MLOAD SWAP6 DUP3 AND DUP7 MSTORE SWAP4 DUP2 AND SWAP3 DUP6 ADD SWAP3 SWAP1 SWAP3 MSTORE SWAP2 AND DUP3 DUP3 ADD MSTORE MLOAD SWAP1 DUP2 SWAP1 SUB PUSH1 0x60 ADD SWAP1 LOG3 PUSH1 0x1 PUSH1 0xA0 PUSH1 0x2 EXP SUB DUP1 DUP5 AND PUSH1 0x0 DUP2 DUP2 MSTORE PUSH1 0x1 PUSH1 0x20 DUP2 DUP2 MSTORE PUSH1 0x40 DUP1 DUP5 KECCAK256 PUSH1 0xFF DUP10 AND DUP6 MSTORE PUSH1 0x4 ADD SWAP1 SWAP2 MSTORE DUP3 KECCAK256 DUP2 ADD DUP1 SLOAD SWAP4 SWAP5 DUP10 AND SWAP4 PUSH1 0x0 DUP1 MLOAD PUSH1 0x20 PUSH2 0x2767 DUP4 CODECOPY DUP2 MLOAD SWAP2 MSTORE SWAP4 DUP9 SWAP3 DUP5 SWAP3 DUP3 SWAP1 DUP2 LT PUSH2 0x222F JUMPI INVALID JUMPDEST PUSH1 0x0 SWAP2 DUP3 MSTORE PUSH1 0x20 DUP1 DUP4 KECCAK256 SWAP1 SWAP2 ADD SLOAD PUSH1 0x1 PUSH1 0xA0 PUSH1 0x2 EXP SUB AND DUP4 MSTORE DUP3 DUP2 ADD SWAP4 SWAP1 SWAP4 MSTORE PUSH1 0x40 SWAP2 DUP3 ADD DUP2 KECCAK256 PUSH1 0xFF DUP1 DUP13 AND DUP4 MSTORE PUSH1 0x4 SWAP1 SWAP2 ADD DUP5 MSTORE SWAP1 DUP3 SWAP1 KECCAK256 PUSH1 0x1 ADD SLOAD DUP3 MLOAD SWAP6 DUP3 AND DUP7 MSTORE SWAP4 DUP2 AND SWAP3 DUP6 ADD SWAP3 SWAP1 SWAP3 MSTORE PUSH1 0x2 SWAP1 SWAP3 ADD AND DUP3 DUP3 ADD MSTORE MLOAD SWAP1 DUP2 SWAP1 SUB PUSH1 0x60 ADD SWAP1 LOG3 PUSH1 0x1 PUSH1 0xA0 PUSH1 0x2 EXP SUB DUP4 AND PUSH1 0x0 SWAP1 DUP2 MSTORE PUSH1 0x1 PUSH1 0x20 DUP2 DUP2 MSTORE PUSH1 0x40 DUP1 DUP5 KECCAK256 PUSH1 0xFF DUP8 AND DUP6 MSTORE PUSH1 0x4 ADD SWAP1 SWAP2 MSTORE DUP3 KECCAK256 ADD DUP1 SLOAD SWAP1 SWAP2 SWAP1 DUP2 LT PUSH2 0x22C8 JUMPI INVALID JUMPDEST PUSH1 0x0 SWAP2 DUP3 MSTORE PUSH1 0x20 DUP1 DUP4 KECCAK256 SWAP1 SWAP2 ADD SLOAD PUSH1 0x1 PUSH1 0xA0 PUSH1 0x2 EXP SUB DUP8 DUP2 AND DUP5 MSTORE PUSH1 0x1 DUP4 MSTORE PUSH1 0x40 DUP1 DUP6 KECCAK256 PUSH1 0xFF DUP9 AND DUP7 MSTORE PUSH1 0x4 ADD SWAP1 SWAP4 MSTORE SWAP2 SWAP1 SWAP3 KECCAK256 DUP1 SLOAD PUSH1 0x1 PUSH1 0xA0 PUSH1 0x2 EXP SUB NOT AND SWAP2 SWAP1 SWAP3 AND OR SWAP1 SSTORE PUSH2 0x2055 JUMP JUMPDEST PUSH1 0x1 PUSH1 0xA0 PUSH1 0x2 EXP SUB DUP4 AND PUSH1 0x0 SWAP1 DUP2 MSTORE PUSH1 0x1 PUSH1 0x20 DUP2 DUP2 MSTORE PUSH1 0x40 DUP1 DUP5 KECCAK256 PUSH1 0xFF DUP8 AND DUP6 MSTORE PUSH1 0x4 ADD SWAP1 SWAP2 MSTORE DUP3 KECCAK256 DUP2 ADD DUP1 SLOAD SWAP2 SWAP3 SWAP2 DUP4 SWAP1 DUP2 LT PUSH2 0x234E JUMPI INVALID JUMPDEST PUSH1 0x0 SWAP2 DUP3 MSTORE PUSH1 0x20 DUP1 DUP4 KECCAK256 SWAP2 SWAP1 SWAP2 ADD SLOAD PUSH1 0x1 PUSH1 0xA0 PUSH1 0x2 EXP SUB SWAP1 DUP2 AND DUP5 MSTORE DUP4 DUP3 ADD SWAP5 SWAP1 SWAP5 MSTORE PUSH1 0x40 SWAP3 DUP4 ADD DUP3 KECCAK256 PUSH1 0xFF DUP8 AND DUP1 DUP5 MSTORE PUSH1 0x4 SWAP2 DUP3 ADD DUP4 MSTORE DUP5 DUP5 KECCAK256 PUSH1 0x1 SWAP1 DUP2 ADD DUP1 SLOAD DUP1 DUP4 ADD DUP3 SSTORE SWAP1 DUP7 MSTORE DUP5 DUP7 KECCAK256 ADD DUP1 SLOAD PUSH1 0x1 PUSH1 0xA0 PUSH1 0x2 EXP SUB NOT AND DUP13 DUP10 AND OR SWAP1 SSTORE SWAP6 DUP10 AND DUP5 MSTORE DUP6 DUP4 MSTORE DUP5 DUP5 KECCAK256 SWAP1 DUP5 MSTORE ADD SWAP1 MSTORE KECCAK256 DUP2 ADD DUP1 SLOAD SWAP1 SWAP2 SWAP1 DUP2 LT PUSH2 0x23CF JUMPI INVALID JUMPDEST PUSH1 0x0 SWAP2 DUP3 MSTORE PUSH1 0x20 DUP1 DUP4 KECCAK256 SWAP1 SWAP2 ADD SLOAD PUSH1 0x1 PUSH1 0xA0 PUSH1 0x2 EXP SUB DUP7 DUP2 AND DUP5 MSTORE PUSH1 0x1 DUP1 DUP5 MSTORE PUSH1 0x40 DUP1 DUP7 KECCAK256 PUSH1 0xFF DUP10 AND DUP8 MSTORE PUSH1 0x4 ADD SWAP1 SWAP5 MSTORE SWAP3 DUP5 KECCAK256 DUP4 ADD DUP1 SLOAD SWAP3 DUP3 AND SWAP5 SWAP2 DUP10 AND SWAP4 PUSH1 0x0 DUP1 MLOAD PUSH1 0x20 PUSH2 0x2767 DUP4 CODECOPY DUP2 MLOAD SWAP2 MSTORE SWAP4 SWAP1 SWAP3 DUP9 SWAP3 DUP5 SWAP3 DUP4 SWAP1 DUP2 LT PUSH2 0x242F JUMPI INVALID JUMPDEST PUSH1 0x0 SWAP2 DUP3 MSTORE PUSH1 0x20 DUP1 DUP4 KECCAK256 SWAP1 SWAP2 ADD SLOAD PUSH1 0x1 PUSH1 0xA0 PUSH1 0x2 EXP SUB AND DUP4 MSTORE DUP3 DUP2 ADD SWAP4 SWAP1 SWAP4 MSTORE PUSH1 0x40 SWAP2 DUP3 ADD DUP2 KECCAK256 PUSH1 0xFF DUP1 DUP13 AND DUP4 MSTORE PUSH1 0x4 SWAP1 SWAP2 ADD DUP5 MSTORE SWAP1 DUP3 SWAP1 KECCAK256 PUSH1 0x1 ADD SLOAD DUP3 MLOAD SWAP6 DUP3 AND DUP7 MSTORE SWAP4 DUP2 AND SWAP3 DUP6 ADD SWAP3 SWAP1 SWAP3 MSTORE SWAP2 AND DUP3 DUP3 ADD MSTORE MLOAD SWAP1 DUP2 SWAP1 SUB PUSH1 0x60 ADD SWAP1 LOG3 PUSH1 0x1 PUSH1 0xA0 PUSH1 0x2 EXP SUB DUP1 DUP5 AND PUSH1 0x0 DUP2 DUP2 MSTORE PUSH1 0x1 PUSH1 0x20 DUP2 DUP2 MSTORE PUSH1 0x40 DUP1 DUP5 KECCAK256 PUSH1 0xFF DUP10 AND DUP6 MSTORE PUSH1 0x4 ADD SWAP1 SWAP2 MSTORE DUP3 KECCAK256 DUP2 ADD DUP1 SLOAD SWAP4 SWAP5 DUP10 AND SWAP4 PUSH1 0x0 DUP1 MLOAD PUSH1 0x20 PUSH2 0x2767 DUP4 CODECOPY DUP2 MLOAD SWAP2 MSTORE SWAP4 DUP9 SWAP3 DUP5 SWAP3 DUP4 SWAP1 DUP2 LT PUSH2 0x24DE JUMPI INVALID JUMPDEST PUSH1 0x0 SWAP2 DUP3 MSTORE PUSH1 0x20 DUP1 DUP4 KECCAK256 SWAP1 SWAP2 ADD SLOAD PUSH1 0x1 PUSH1 0xA0 PUSH1 0x2 EXP SUB AND DUP4 MSTORE DUP3 DUP2 ADD SWAP4 SWAP1 SWAP4 MSTORE PUSH1 0x40 SWAP2 DUP3 ADD DUP2 KECCAK256 PUSH1 0xFF DUP1 DUP13 AND DUP4 MSTORE PUSH1 0x4 SWAP2 DUP3 ADD DUP6 MSTORE SWAP2 DUP4 SWAP1 KECCAK256 PUSH1 0x1 ADD SLOAD DUP4 MLOAD SWAP7 DUP4 AND DUP8 MSTORE SWAP5 DUP3 AND SWAP4 DUP7 ADD SWAP4 SWAP1 SWAP4 MSTORE SWAP3 SWAP1 SWAP2 ADD SWAP1 SWAP2 AND DUP3 DUP3 ADD MSTORE MLOAD SWAP1 DUP2 SWAP1 SUB PUSH1 0x60 ADD SWAP1 LOG3 PUSH1 0x1 PUSH1 0xA0 PUSH1 0x2 EXP SUB DUP4 AND PUSH1 0x0 SWAP1 DUP2 MSTORE PUSH1 0x1 PUSH1 0x20 DUP2 DUP2 MSTORE PUSH1 0x40 DUP1 DUP5 KECCAK256 PUSH1 0xFF DUP8 AND DUP6 MSTORE PUSH1 0x4 ADD SWAP1 SWAP2 MSTORE SWAP1 SWAP2 KECCAK256 DUP2 ADD DUP1 SLOAD SWAP1 SWAP2 SWAP1 DUP2 LT PUSH2 0x257A JUMPI INVALID JUMPDEST PUSH1 0x0 SWAP2 DUP3 MSTORE PUSH1 0x20 DUP1 DUP4 KECCAK256 SWAP1 SWAP2 ADD SLOAD PUSH1 0x1 PUSH1 0xA0 PUSH1 0x2 EXP SUB DUP8 DUP2 AND DUP5 MSTORE PUSH1 0x1 DUP4 MSTORE PUSH1 0x40 DUP1 DUP6 KECCAK256 PUSH1 0xFF DUP9 AND DUP7 MSTORE PUSH1 0x4 ADD SWAP1 SWAP4 MSTORE SWAP2 SWAP1 SWAP3 KECCAK256 DUP1 SLOAD PUSH1 0x1 PUSH1 0xA0 PUSH1 0x2 EXP SUB NOT AND SWAP2 SWAP1 SWAP3 AND OR SWAP1 SSTORE POP POP POP POP JUMP JUMPDEST PUSH1 0x0 DUP1 DUP6 DUP2 PUSH1 0x1 PUSH1 0xFF DUP8 AND EQ ISZERO PUSH2 0x26A3 JUMPI JUMPDEST PUSH1 0x1 PUSH1 0xA0 PUSH1 0x2 EXP SUB DUP3 AND PUSH1 0x0 SWAP1 DUP2 MSTORE PUSH1 0x1 PUSH1 0x20 SWAP1 DUP2 MSTORE PUSH1 0x40 DUP1 DUP4 KECCAK256 PUSH1 0xFF DUP1 DUP11 AND DUP6 MSTORE PUSH1 0x4 SWAP1 SWAP2 ADD SWAP1 SWAP3 MSTORE SWAP1 SWAP2 KECCAK256 PUSH1 0x3 ADD SLOAD AND ISZERO PUSH2 0x2694 JUMPI PUSH1 0x40 DUP1 MLOAD PUSH1 0x1 DUP2 MSTORE PUSH1 0xFF DUP8 AND PUSH1 0x20 DUP3 ADD MSTORE DUP2 MLOAD PUSH1 0x1 PUSH1 0xA0 PUSH1 0x2 EXP SUB DUP1 DUP12 AND SWAP4 SWAP1 DUP7 AND SWAP3 PUSH32 0xFC0CB63F8DBD6B20CEB84A3C5358A41576A1479E6ECD040B4B985525DC09A709 SWAP3 SWAP1 DUP2 SWAP1 SUB SWAP1 SWAP2 ADD SWAP1 LOG3 POP PUSH1 0x1 PUSH1 0xA0 PUSH1 0x2 EXP SUB SWAP1 DUP2 AND PUSH1 0x0 SWAP1 DUP2 MSTORE PUSH1 0x1 PUSH1 0x20 DUP2 DUP2 MSTORE PUSH1 0x40 DUP1 DUP5 KECCAK256 PUSH1 0xFF DUP10 AND DUP6 MSTORE PUSH1 0x4 ADD SWAP1 SWAP2 MSTORE SWAP1 SWAP2 KECCAK256 SLOAD SWAP1 SWAP2 AND SWAP1 PUSH2 0x269E JUMP JUMPDEST SWAP1 SWAP3 POP SWAP1 POP PUSH2 0x26A6 JUMP JUMPDEST PUSH2 0x25D9 JUMP JUMPDEST POP POP JUMPDEST SWAP5 POP SWAP5 SWAP3 POP POP POP JUMP JUMPDEST PUSH1 0x60 PUSH1 0x40 MLOAD SWAP1 DUP2 ADD PUSH1 0x40 MSTORE DUP1 PUSH1 0x0 DUP2 MSTORE PUSH1 0x20 ADD PUSH1 0x0 PUSH1 0x1 PUSH1 0xA0 PUSH1 0x2 EXP SUB AND DUP2 MSTORE PUSH1 0x20 ADD PUSH1 0x0 DUP2 MSTORE POP SWAP1 JUMP JUMPDEST DUP3 DUP1 SLOAD DUP3 DUP3 SSTORE SWAP1 PUSH1 0x0 MSTORE PUSH1 0x20 PUSH1 0x0 KECCAK256 SWAP1 DUP2 ADD SWAP3 DUP3 ISZERO PUSH2 0x272F JUMPI SWAP2 PUSH1 0x20 MUL DUP3 ADD JUMPDEST DUP3 DUP2 GT ISZERO PUSH2 0x272F JUMPI DUP3 MLOAD DUP3 SLOAD PUSH1 0x1 PUSH1 0xA0 PUSH1 0x2 EXP SUB NOT AND PUSH1 0x1 PUSH1 0xA0 PUSH1 0x2 EXP SUB SWAP1 SWAP2 AND OR DUP3 SSTORE PUSH1 0x20 SWAP1 SWAP3 ADD SWAP2 PUSH1 0x1 SWAP1 SWAP2 ADD SWAP1 PUSH2 0x26FA JUMP JUMPDEST POP PUSH2 0x273B SWAP3 SWAP2 POP PUSH2 0x273F JUMP JUMPDEST POP SWAP1 JUMP JUMPDEST PUSH2 0x2763 SWAP2 SWAP1 JUMPDEST DUP1 DUP3 GT ISZERO PUSH2 0x273B JUMPI DUP1 SLOAD PUSH1 0x1 PUSH1 0xA0 PUSH1 0x2 EXP SUB NOT AND DUP2 SSTORE PUSH1 0x1 ADD PUSH2 0x2745 JUMP JUMPDEST SWAP1 JUMP INVALID PUSH9 0x62C5925C4317ADF3A PUSH17 0x95478D28B33FD8B41458BC7620B61BC46B CALL 0xb2 0x4d DUP3 LOG1 PUSH6 0x627A7A723058 KECCAK256 OR 0xca PUSH13 0x92EEB8DABE0439EB945B7B4B25 0xab 0xde CREATE COINBASE 0xb5 LOG4 MSIZE 0xcd 0xcc 0xad RETURNDATASIZE SWAP15 0x29 0x27 SWAP4 0xd5 STOP 0x29 "},"methodIdentifiers":{"LAST_LEVEL()":"29c70400","buyNewLevel(uint8,uint8)":"be389d57","currentStartingLevel()":"79621fcc","findfreeX4Referrer(address,uint8)":"3def2f0e","idToAddress(uint256)":"2a2d0c47","isUserExists(address)":"509222cd","lastUserId()":"348d4487","levelPrice(uint8)":"ecabdf79","owner()":"8da5cb5b","registrationExt(address)":"797eee24","setXGold(address)":"b2d4259c","userIds(uint256)":"4635fd68","users(address)":"a87430ba","usersactiveX4Levels(address,uint8)":"2787c848","usersx4Matrix(address,uint8)":"a4c85d90","withdrawLostTRXFromBalance()":"899cdb90","xGOLD()":"fe29a15b"}}}}}